{"contracts/Consumer.sol":{"Consumer":{"abi":[{"inputs":[{"internalType":"address","name":"_manufacturerAddress","type":"address"}],"stateMutability":"nonpayable","type":"constructor"},{"anonymous":false,"inputs":[{"indexed":true,"internalType":"bytes32","name":"secret","type":"bytes32"},{"indexed":false,"internalType":"uint256","name":"timestamp","type":"uint256"},{"indexed":false,"internalType":"address","name":"consumer","type":"address"}],"name":"EatPill","type":"event"},{"inputs":[{"internalType":"string","name":"_sku","type":"string"},{"internalType":"uint256","name":"_timestamp","type":"uint256"}],"name":"consumePill","outputs":[],"stateMutability":"payable","type":"function"},{"inputs":[{"internalType":"uint256","name":"_temp","type":"uint256"}],"name":"keccakOfNumber","outputs":[{"internalType":"bytes32","name":"","type":"bytes32"}],"stateMutability":"pure","type":"function"},{"inputs":[],"name":"manufacturer","outputs":[{"internalType":"contract Manufacturer","name":"","type":"address"}],"stateMutability":"view","type":"function"},{"inputs":[],"name":"pillCreator","outputs":[{"internalType":"address payable","name":"","type":"address"}],"stateMutability":"view","type":"function"},{"inputs":[{"internalType":"bytes32","name":"_secret","type":"bytes32"}],"name":"viewData","outputs":[{"internalType":"bytes32","name":"","type":"bytes32"},{"internalType":"uint8","name":"","type":"uint8"},{"internalType":"address","name":"","type":"address"},{"internalType":"uint256","name":"","type":"uint256"},{"internalType":"address","name":"","type":"address"}],"stateMutability":"view","type":"function"}],"evm":{"bytecode":{"linkReferences":{},"object":"60806040523480156200001157600080fd5b5060405162001002380380620010028339818101604052810190620000379190620001ba565b806000806101000a81548173ffffffffffffffffffffffffffffffffffffffff021916908373ffffffffffffffffffffffffffffffffffffffff16021790555060008054906101000a900473ffffffffffffffffffffffffffffffffffffffff1673ffffffffffffffffffffffffffffffffffffffff1663ce606ee06040518163ffffffff1660e01b8152600401602060405180830381865afa158015620000e3573d6000803e3d6000fd5b505050506040513d601f19601f82011682018060405250810190620001099190620001ba565b600160006101000a81548173ffffffffffffffffffffffffffffffffffffffff021916908373ffffffffffffffffffffffffffffffffffffffff16021790555050620001ec565b600080fd5b600073ffffffffffffffffffffffffffffffffffffffff82169050919050565b6000620001828262000155565b9050919050565b620001948162000175565b8114620001a057600080fd5b50565b600081519050620001b48162000189565b92915050565b600060208284031215620001d357620001d262000150565b5b6000620001e384828501620001a3565b91505092915050565b610e0680620001fc6000396000f3fe60806040526004361061004a5760003560e01c8063054089a51461004f5780637475428214610090578063798c0c79146100bb578063f03804fe146100e6578063f87c948314610123575b600080fd5b34801561005b57600080fd5b5061007660048036038101906100719190610638565b61013f565b6040516100879594939291906106ea565b60405180910390f35b34801561009c57600080fd5b506100a56101f5565b6040516100b2919061079c565b60405180910390f35b3480156100c757600080fd5b506100d0610219565b6040516100dd91906107d8565b60405180910390f35b3480156100f257600080fd5b5061010d6004803603810190610108919061081f565b61023f565b60405161011a919061084c565b60405180910390f35b61013d600480360381019061013891906109ad565b61026f565b005b60008060008060008060009054906101000a900473ffffffffffffffffffffffffffffffffffffffff1673ffffffffffffffffffffffffffffffffffffffff1663c76b8b31876040518263ffffffff1660e01b81526004016101a1919061084c565b60a060405180830381865afa1580156101be573d6000803e3d6000fd5b505050506040513d601f19601f820116820180604052508101906101e29190610a8b565b9450945094509450945091939590929450565b60008054906101000a900473ffffffffffffffffffffffffffffffffffffffff1681565b600160009054906101000a900473ffffffffffffffffffffffffffffffffffffffff1681565b6000816040516020016102529190610b27565b604051602081830303815290604052805190602001209050919050565b60008282604051602001610284929190610bb3565b60405160208183030381529060405280519060200120905060008060008054906101000a900473ffffffffffffffffffffffffffffffffffffffff1673ffffffffffffffffffffffffffffffffffffffff1663c76b8b31846040518263ffffffff1660e01b81526004016102f8919061084c565b60a060405180830381865afa158015610315573d6000803e3d6000fd5b505050506040513d601f19601f820116820180604052508101906103399190610a8b565b505050915091506000801b8203610385576040517f08c379a000000000000000000000000000000000000000000000000000000000815260040161037c90610c38565b60405180910390fd5b60008160ff16146103cb576040517f08c379a00000000000000000000000000000000000000000000000000000000081526004016103c290610ca4565b60405180910390fd5b60008054906101000a900473ffffffffffffffffffffffffffffffffffffffff1673ffffffffffffffffffffffffffffffffffffffff16631f116b928686336040518463ffffffff1660e01b815260040161042893929190610cfd565b600060405180830381600087803b15801561044257600080fd5b505af1158015610456573d6000803e3d6000fd5b50505050600160009054906101000a900473ffffffffffffffffffffffffffffffffffffffff1673ffffffffffffffffffffffffffffffffffffffff166108fc349081150290604051600060405180830381858888f193505050501580156104c2573d6000803e3d6000fd5b5060008060009054906101000a900473ffffffffffffffffffffffffffffffffffffffff1673ffffffffffffffffffffffffffffffffffffffff1663c76b8b31856040518263ffffffff1660e01b815260040161051f919061084c565b60a060405180830381865afa15801561053c573d6000803e3d6000fd5b505050506040513d601f19601f820116820180604052508101906105609190610a8b565b50505091505060018160ff16146105ac576040517f08c379a00000000000000000000000000000000000000000000000000000000081526004016105a390610d87565b60405180910390fd5b827f0f95ac21588442a75e05c540b43f5bf31de5e61a86ad6e197836a7427a8dcbc986336040516105de929190610da7565b60405180910390a2505050505050565b6000604051905090565b600080fd5b600080fd5b6000819050919050565b61061581610602565b811461062057600080fd5b50565b6000813590506106328161060c565b92915050565b60006020828403121561064e5761064d6105f8565b5b600061065c84828501610623565b91505092915050565b61066e81610602565b82525050565b600060ff82169050919050565b61068a81610674565b82525050565b600073ffffffffffffffffffffffffffffffffffffffff82169050919050565b60006106bb82610690565b9050919050565b6106cb816106b0565b82525050565b6000819050919050565b6106e4816106d1565b82525050565b600060a0820190506106ff6000830188610665565b61070c6020830187610681565b61071960408301866106c2565b61072660608301856106db565b61073360808301846106c2565b9695505050505050565b6000819050919050565b600061076261075d61075884610690565b61073d565b610690565b9050919050565b600061077482610747565b9050919050565b600061078682610769565b9050919050565b6107968161077b565b82525050565b60006020820190506107b1600083018461078d565b92915050565b60006107c282610690565b9050919050565b6107d2816107b7565b82525050565b60006020820190506107ed60008301846107c9565b92915050565b6107fc816106d1565b811461080757600080fd5b50565b600081359050610819816107f3565b92915050565b600060208284031215610835576108346105f8565b5b60006108438482850161080a565b91505092915050565b60006020820190506108616000830184610665565b92915050565b600080fd5b600080fd5b6000601f19601f8301169050919050565b7f4e487b7100000000000000000000000000000000000000000000000000000000600052604160045260246000fd5b6108ba82610871565b810181811067ffffffffffffffff821117156108d9576108d8610882565b5b80604052505050565b60006108ec6105ee565b90506108f882826108b1565b919050565b600067ffffffffffffffff82111561091857610917610882565b5b61092182610871565b9050602081019050919050565b82818337600083830152505050565b600061095061094b846108fd565b6108e2565b90508281526020810184848401111561096c5761096b61086c565b5b61097784828561092e565b509392505050565b600082601f83011261099457610993610867565b5b81356109a484826020860161093d565b91505092915050565b600080604083850312156109c4576109c36105f8565b5b600083013567ffffffffffffffff8111156109e2576109e16105fd565b5b6109ee8582860161097f565b92505060206109ff8582860161080a565b9150509250929050565b600081519050610a188161060c565b92915050565b610a2781610674565b8114610a3257600080fd5b50565b600081519050610a4481610a1e565b92915050565b610a53816106b0565b8114610a5e57600080fd5b50565b600081519050610a7081610a4a565b92915050565b600081519050610a85816107f3565b92915050565b600080600080600060a08688031215610aa757610aa66105f8565b5b6000610ab588828901610a09565b9550506020610ac688828901610a35565b9450506040610ad788828901610a61565b9350506060610ae888828901610a76565b9250506080610af988828901610a61565b9150509295509295909350565b6000819050919050565b610b21610b1c826106d1565b610b06565b82525050565b6000610b338284610b10565b60208201915081905092915050565b600081519050919050565b600081905092915050565b60005b83811015610b76578082015181840152602081019050610b5b565b60008484015250505050565b6000610b8d82610b42565b610b978185610b4d565b9350610ba7818560208601610b58565b80840191505092915050565b6000610bbf8285610b82565b9150610bcb8284610b10565b6020820191508190509392505050565b600082825260208201905092915050565b7f50696c6c20646f6573206e6f7420657869737400000000000000000000000000600082015250565b6000610c22601383610bdb565b9150610c2d82610bec565b602082019050919050565b60006020820190508181036000830152610c5181610c15565b9050919050565b7f50696c6c206973206e6f7420636f6e73756d6564000000000000000000000000600082015250565b6000610c8e601483610bdb565b9150610c9982610c58565b602082019050919050565b60006020820190508181036000830152610cbd81610c81565b9050919050565b6000610ccf82610b42565b610cd98185610bdb565b9350610ce9818560208601610b58565b610cf281610871565b840191505092915050565b60006060820190508181036000830152610d178186610cc4565b9050610d2660208301856106db565b610d3360408301846106c2565b949350505050565b7f50696c6c2073746174757320757064617465206661696c656400000000000000600082015250565b6000610d71601983610bdb565b9150610d7c82610d3b565b602082019050919050565b60006020820190508181036000830152610da081610d64565b9050919050565b6000604082019050610dbc60008301856106db565b610dc960208301846106c2565b939250505056fea264697066735822122081c15705dc771ea8c96538c96d1d9798ad334b911da07561552afbb7c99cb64664736f6c63430008180033","opcodes":"PUSH1 0x80 PUSH1 0x40 MSTORE CALLVALUE DUP1 ISZERO PUSH3 0x11 JUMPI PUSH1 0x0 DUP1 REVERT JUMPDEST POP PUSH1 0x40 MLOAD PUSH3 0x1002 CODESIZE SUB DUP1 PUSH3 0x1002 DUP4 CODECOPY DUP2 DUP2 ADD PUSH1 0x40 MSTORE DUP2 ADD SWAP1 PUSH3 0x37 SWAP2 SWAP1 PUSH3 0x1BA JUMP JUMPDEST DUP1 PUSH1 0x0 DUP1 PUSH2 0x100 EXP DUP2 SLOAD DUP2 PUSH20 0xFFFFFFFFFFFFFFFFFFFFFFFFFFFFFFFFFFFFFFFF MUL NOT AND SWAP1 DUP4 PUSH20 0xFFFFFFFFFFFFFFFFFFFFFFFFFFFFFFFFFFFFFFFF AND MUL OR SWAP1 SSTORE POP PUSH1 0x0 DUP1 SLOAD SWAP1 PUSH2 0x100 EXP SWAP1 DIV PUSH20 0xFFFFFFFFFFFFFFFFFFFFFFFFFFFFFFFFFFFFFFFF AND PUSH20 0xFFFFFFFFFFFFFFFFFFFFFFFFFFFFFFFFFFFFFFFF AND PUSH4 0xCE606EE0 PUSH1 0x40 MLOAD DUP2 PUSH4 0xFFFFFFFF AND PUSH1 0xE0 SHL DUP2 MSTORE PUSH1 0x4 ADD PUSH1 0x20 PUSH1 0x40 MLOAD DUP1 DUP4 SUB DUP2 DUP7 GAS STATICCALL ISZERO DUP1 ISZERO PUSH3 0xE3 JUMPI RETURNDATASIZE PUSH1 0x0 DUP1 RETURNDATACOPY RETURNDATASIZE PUSH1 0x0 REVERT JUMPDEST POP POP POP POP PUSH1 0x40 MLOAD RETURNDATASIZE PUSH1 0x1F NOT PUSH1 0x1F DUP3 ADD AND DUP3 ADD DUP1 PUSH1 0x40 MSTORE POP DUP2 ADD SWAP1 PUSH3 0x109 SWAP2 SWAP1 PUSH3 0x1BA JUMP JUMPDEST PUSH1 0x1 PUSH1 0x0 PUSH2 0x100 EXP DUP2 SLOAD DUP2 PUSH20 0xFFFFFFFFFFFFFFFFFFFFFFFFFFFFFFFFFFFFFFFF MUL NOT AND SWAP1 DUP4 PUSH20 0xFFFFFFFFFFFFFFFFFFFFFFFFFFFFFFFFFFFFFFFF AND MUL OR SWAP1 SSTORE POP POP PUSH3 0x1EC JUMP JUMPDEST PUSH1 0x0 DUP1 REVERT JUMPDEST PUSH1 0x0 PUSH20 0xFFFFFFFFFFFFFFFFFFFFFFFFFFFFFFFFFFFFFFFF DUP3 AND SWAP1 POP SWAP2 SWAP1 POP JUMP JUMPDEST PUSH1 0x0 PUSH3 0x182 DUP3 PUSH3 0x155 JUMP JUMPDEST SWAP1 POP SWAP2 SWAP1 POP JUMP JUMPDEST PUSH3 0x194 DUP2 PUSH3 0x175 JUMP JUMPDEST DUP2 EQ PUSH3 0x1A0 JUMPI PUSH1 0x0 DUP1 REVERT JUMPDEST POP JUMP JUMPDEST PUSH1 0x0 DUP2 MLOAD SWAP1 POP PUSH3 0x1B4 DUP2 PUSH3 0x189 JUMP JUMPDEST SWAP3 SWAP2 POP POP JUMP JUMPDEST PUSH1 0x0 PUSH1 0x20 DUP3 DUP5 SUB SLT ISZERO PUSH3 0x1D3 JUMPI PUSH3 0x1D2 PUSH3 0x150 JUMP JUMPDEST JUMPDEST PUSH1 0x0 PUSH3 0x1E3 DUP5 DUP3 DUP6 ADD PUSH3 0x1A3 JUMP JUMPDEST SWAP2 POP POP SWAP3 SWAP2 POP POP JUMP JUMPDEST PUSH2 0xE06 DUP1 PUSH3 0x1FC PUSH1 0x0 CODECOPY PUSH1 0x0 RETURN INVALID PUSH1 0x80 PUSH1 0x40 MSTORE PUSH1 0x4 CALLDATASIZE LT PUSH2 0x4A JUMPI PUSH1 0x0 CALLDATALOAD PUSH1 0xE0 SHR DUP1 PUSH4 0x54089A5 EQ PUSH2 0x4F JUMPI DUP1 PUSH4 0x74754282 EQ PUSH2 0x90 JUMPI DUP1 PUSH4 0x798C0C79 EQ PUSH2 0xBB JUMPI DUP1 PUSH4 0xF03804FE EQ PUSH2 0xE6 JUMPI DUP1 PUSH4 0xF87C9483 EQ PUSH2 0x123 JUMPI JUMPDEST PUSH1 0x0 DUP1 REVERT JUMPDEST CALLVALUE DUP1 ISZERO PUSH2 0x5B JUMPI PUSH1 0x0 DUP1 REVERT JUMPDEST POP PUSH2 0x76 PUSH1 0x4 DUP1 CALLDATASIZE SUB DUP2 ADD SWAP1 PUSH2 0x71 SWAP2 SWAP1 PUSH2 0x638 JUMP JUMPDEST PUSH2 0x13F JUMP JUMPDEST PUSH1 0x40 MLOAD PUSH2 0x87 SWAP6 SWAP5 SWAP4 SWAP3 SWAP2 SWAP1 PUSH2 0x6EA JUMP JUMPDEST PUSH1 0x40 MLOAD DUP1 SWAP2 SUB SWAP1 RETURN JUMPDEST CALLVALUE DUP1 ISZERO PUSH2 0x9C JUMPI PUSH1 0x0 DUP1 REVERT JUMPDEST POP PUSH2 0xA5 PUSH2 0x1F5 JUMP JUMPDEST PUSH1 0x40 MLOAD PUSH2 0xB2 SWAP2 SWAP1 PUSH2 0x79C JUMP JUMPDEST PUSH1 0x40 MLOAD DUP1 SWAP2 SUB SWAP1 RETURN JUMPDEST CALLVALUE DUP1 ISZERO PUSH2 0xC7 JUMPI PUSH1 0x0 DUP1 REVERT JUMPDEST POP PUSH2 0xD0 PUSH2 0x219 JUMP JUMPDEST PUSH1 0x40 MLOAD PUSH2 0xDD SWAP2 SWAP1 PUSH2 0x7D8 JUMP JUMPDEST PUSH1 0x40 MLOAD DUP1 SWAP2 SUB SWAP1 RETURN JUMPDEST CALLVALUE DUP1 ISZERO PUSH2 0xF2 JUMPI PUSH1 0x0 DUP1 REVERT JUMPDEST POP PUSH2 0x10D PUSH1 0x4 DUP1 CALLDATASIZE SUB DUP2 ADD SWAP1 PUSH2 0x108 SWAP2 SWAP1 PUSH2 0x81F JUMP JUMPDEST PUSH2 0x23F JUMP JUMPDEST PUSH1 0x40 MLOAD PUSH2 0x11A SWAP2 SWAP1 PUSH2 0x84C JUMP JUMPDEST PUSH1 0x40 MLOAD DUP1 SWAP2 SUB SWAP1 RETURN JUMPDEST PUSH2 0x13D PUSH1 0x4 DUP1 CALLDATASIZE SUB DUP2 ADD SWAP1 PUSH2 0x138 SWAP2 SWAP1 PUSH2 0x9AD JUMP JUMPDEST PUSH2 0x26F JUMP JUMPDEST STOP JUMPDEST PUSH1 0x0 DUP1 PUSH1 0x0 DUP1 PUSH1 0x0 DUP1 PUSH1 0x0 SWAP1 SLOAD SWAP1 PUSH2 0x100 EXP SWAP1 DIV PUSH20 0xFFFFFFFFFFFFFFFFFFFFFFFFFFFFFFFFFFFFFFFF AND PUSH20 0xFFFFFFFFFFFFFFFFFFFFFFFFFFFFFFFFFFFFFFFF AND PUSH4 0xC76B8B31 DUP8 PUSH1 0x40 MLOAD DUP3 PUSH4 0xFFFFFFFF AND PUSH1 0xE0 SHL DUP2 MSTORE PUSH1 0x4 ADD PUSH2 0x1A1 SWAP2 SWAP1 PUSH2 0x84C JUMP JUMPDEST PUSH1 0xA0 PUSH1 0x40 MLOAD DUP1 DUP4 SUB DUP2 DUP7 GAS STATICCALL ISZERO DUP1 ISZERO PUSH2 0x1BE JUMPI RETURNDATASIZE PUSH1 0x0 DUP1 RETURNDATACOPY RETURNDATASIZE PUSH1 0x0 REVERT JUMPDEST POP POP POP POP PUSH1 0x40 MLOAD RETURNDATASIZE PUSH1 0x1F NOT PUSH1 0x1F DUP3 ADD AND DUP3 ADD DUP1 PUSH1 0x40 MSTORE POP DUP2 ADD SWAP1 PUSH2 0x1E2 SWAP2 SWAP1 PUSH2 0xA8B JUMP JUMPDEST SWAP5 POP SWAP5 POP SWAP5 POP SWAP5 POP SWAP5 POP SWAP2 SWAP4 SWAP6 SWAP1 SWAP3 SWAP5 POP JUMP JUMPDEST PUSH1 0x0 DUP1 SLOAD SWAP1 PUSH2 0x100 EXP SWAP1 DIV PUSH20 0xFFFFFFFFFFFFFFFFFFFFFFFFFFFFFFFFFFFFFFFF AND DUP2 JUMP JUMPDEST PUSH1 0x1 PUSH1 0x0 SWAP1 SLOAD SWAP1 PUSH2 0x100 EXP SWAP1 DIV PUSH20 0xFFFFFFFFFFFFFFFFFFFFFFFFFFFFFFFFFFFFFFFF AND DUP2 JUMP JUMPDEST PUSH1 0x0 DUP2 PUSH1 0x40 MLOAD PUSH1 0x20 ADD PUSH2 0x252 SWAP2 SWAP1 PUSH2 0xB27 JUMP JUMPDEST PUSH1 0x40 MLOAD PUSH1 0x20 DUP2 DUP4 SUB SUB DUP2 MSTORE SWAP1 PUSH1 0x40 MSTORE DUP1 MLOAD SWAP1 PUSH1 0x20 ADD KECCAK256 SWAP1 POP SWAP2 SWAP1 POP JUMP JUMPDEST PUSH1 0x0 DUP3 DUP3 PUSH1 0x40 MLOAD PUSH1 0x20 ADD PUSH2 0x284 SWAP3 SWAP2 SWAP1 PUSH2 0xBB3 JUMP JUMPDEST PUSH1 0x40 MLOAD PUSH1 0x20 DUP2 DUP4 SUB SUB DUP2 MSTORE SWAP1 PUSH1 0x40 MSTORE DUP1 MLOAD SWAP1 PUSH1 0x20 ADD KECCAK256 SWAP1 POP PUSH1 0x0 DUP1 PUSH1 0x0 DUP1 SLOAD SWAP1 PUSH2 0x100 EXP SWAP1 DIV PUSH20 0xFFFFFFFFFFFFFFFFFFFFFFFFFFFFFFFFFFFFFFFF AND PUSH20 0xFFFFFFFFFFFFFFFFFFFFFFFFFFFFFFFFFFFFFFFF AND PUSH4 0xC76B8B31 DUP5 PUSH1 0x40 MLOAD DUP3 PUSH4 0xFFFFFFFF AND PUSH1 0xE0 SHL DUP2 MSTORE PUSH1 0x4 ADD PUSH2 0x2F8 SWAP2 SWAP1 PUSH2 0x84C JUMP JUMPDEST PUSH1 0xA0 PUSH1 0x40 MLOAD DUP1 DUP4 SUB DUP2 DUP7 GAS STATICCALL ISZERO DUP1 ISZERO PUSH2 0x315 JUMPI RETURNDATASIZE PUSH1 0x0 DUP1 RETURNDATACOPY RETURNDATASIZE PUSH1 0x0 REVERT JUMPDEST POP POP POP POP PUSH1 0x40 MLOAD RETURNDATASIZE PUSH1 0x1F NOT PUSH1 0x1F DUP3 ADD AND DUP3 ADD DUP1 PUSH1 0x40 MSTORE POP DUP2 ADD SWAP1 PUSH2 0x339 SWAP2 SWAP1 PUSH2 0xA8B JUMP JUMPDEST POP POP POP SWAP2 POP SWAP2 POP PUSH1 0x0 DUP1 SHL DUP3 SUB PUSH2 0x385 JUMPI PUSH1 0x40 MLOAD PUSH32 0x8C379A000000000000000000000000000000000000000000000000000000000 DUP2 MSTORE PUSH1 0x4 ADD PUSH2 0x37C SWAP1 PUSH2 0xC38 JUMP JUMPDEST PUSH1 0x40 MLOAD DUP1 SWAP2 SUB SWAP1 REVERT JUMPDEST PUSH1 0x0 DUP2 PUSH1 0xFF AND EQ PUSH2 0x3CB JUMPI PUSH1 0x40 MLOAD PUSH32 0x8C379A000000000000000000000000000000000000000000000000000000000 DUP2 MSTORE PUSH1 0x4 ADD PUSH2 0x3C2 SWAP1 PUSH2 0xCA4 JUMP JUMPDEST PUSH1 0x40 MLOAD DUP1 SWAP2 SUB SWAP1 REVERT JUMPDEST PUSH1 0x0 DUP1 SLOAD SWAP1 PUSH2 0x100 EXP SWAP1 DIV PUSH20 0xFFFFFFFFFFFFFFFFFFFFFFFFFFFFFFFFFFFFFFFF AND PUSH20 0xFFFFFFFFFFFFFFFFFFFFFFFFFFFFFFFFFFFFFFFF AND PUSH4 0x1F116B92 DUP7 DUP7 CALLER PUSH1 0x40 MLOAD DUP5 PUSH4 0xFFFFFFFF AND PUSH1 0xE0 SHL DUP2 MSTORE PUSH1 0x4 ADD PUSH2 0x428 SWAP4 SWAP3 SWAP2 SWAP1 PUSH2 0xCFD JUMP JUMPDEST PUSH1 0x0 PUSH1 0x40 MLOAD DUP1 DUP4 SUB DUP2 PUSH1 0x0 DUP8 DUP1 EXTCODESIZE ISZERO DUP1 ISZERO PUSH2 0x442 JUMPI PUSH1 0x0 DUP1 REVERT JUMPDEST POP GAS CALL ISZERO DUP1 ISZERO PUSH2 0x456 JUMPI RETURNDATASIZE PUSH1 0x0 DUP1 RETURNDATACOPY RETURNDATASIZE PUSH1 0x0 REVERT JUMPDEST POP POP POP POP PUSH1 0x1 PUSH1 0x0 SWAP1 SLOAD SWAP1 PUSH2 0x100 EXP SWAP1 DIV PUSH20 0xFFFFFFFFFFFFFFFFFFFFFFFFFFFFFFFFFFFFFFFF AND PUSH20 0xFFFFFFFFFFFFFFFFFFFFFFFFFFFFFFFFFFFFFFFF AND PUSH2 0x8FC CALLVALUE SWAP1 DUP2 ISZERO MUL SWAP1 PUSH1 0x40 MLOAD PUSH1 0x0 PUSH1 0x40 MLOAD DUP1 DUP4 SUB DUP2 DUP6 DUP9 DUP9 CALL SWAP4 POP POP POP POP ISZERO DUP1 ISZERO PUSH2 0x4C2 JUMPI RETURNDATASIZE PUSH1 0x0 DUP1 RETURNDATACOPY RETURNDATASIZE PUSH1 0x0 REVERT JUMPDEST POP PUSH1 0x0 DUP1 PUSH1 0x0 SWAP1 SLOAD SWAP1 PUSH2 0x100 EXP SWAP1 DIV PUSH20 0xFFFFFFFFFFFFFFFFFFFFFFFFFFFFFFFFFFFFFFFF AND PUSH20 0xFFFFFFFFFFFFFFFFFFFFFFFFFFFFFFFFFFFFFFFF AND PUSH4 0xC76B8B31 DUP6 PUSH1 0x40 MLOAD DUP3 PUSH4 0xFFFFFFFF AND PUSH1 0xE0 SHL DUP2 MSTORE PUSH1 0x4 ADD PUSH2 0x51F SWAP2 SWAP1 PUSH2 0x84C JUMP JUMPDEST PUSH1 0xA0 PUSH1 0x40 MLOAD DUP1 DUP4 SUB DUP2 DUP7 GAS STATICCALL ISZERO DUP1 ISZERO PUSH2 0x53C JUMPI RETURNDATASIZE PUSH1 0x0 DUP1 RETURNDATACOPY RETURNDATASIZE PUSH1 0x0 REVERT JUMPDEST POP POP POP POP PUSH1 0x40 MLOAD RETURNDATASIZE PUSH1 0x1F NOT PUSH1 0x1F DUP3 ADD AND DUP3 ADD DUP1 PUSH1 0x40 MSTORE POP DUP2 ADD SWAP1 PUSH2 0x560 SWAP2 SWAP1 PUSH2 0xA8B JUMP JUMPDEST POP POP POP SWAP2 POP POP PUSH1 0x1 DUP2 PUSH1 0xFF AND EQ PUSH2 0x5AC JUMPI PUSH1 0x40 MLOAD PUSH32 0x8C379A000000000000000000000000000000000000000000000000000000000 DUP2 MSTORE PUSH1 0x4 ADD PUSH2 0x5A3 SWAP1 PUSH2 0xD87 JUMP JUMPDEST PUSH1 0x40 MLOAD DUP1 SWAP2 SUB SWAP1 REVERT JUMPDEST DUP3 PUSH32 0xF95AC21588442A75E05C540B43F5BF31DE5E61A86AD6E197836A7427A8DCBC9 DUP7 CALLER PUSH1 0x40 MLOAD PUSH2 0x5DE SWAP3 SWAP2 SWAP1 PUSH2 0xDA7 JUMP JUMPDEST PUSH1 0x40 MLOAD DUP1 SWAP2 SUB SWAP1 LOG2 POP POP POP POP POP POP JUMP JUMPDEST PUSH1 0x0 PUSH1 0x40 MLOAD SWAP1 POP SWAP1 JUMP JUMPDEST PUSH1 0x0 DUP1 REVERT JUMPDEST PUSH1 0x0 DUP1 REVERT JUMPDEST PUSH1 0x0 DUP2 SWAP1 POP SWAP2 SWAP1 POP JUMP JUMPDEST PUSH2 0x615 DUP2 PUSH2 0x602 JUMP JUMPDEST DUP2 EQ PUSH2 0x620 JUMPI PUSH1 0x0 DUP1 REVERT JUMPDEST POP JUMP JUMPDEST PUSH1 0x0 DUP2 CALLDATALOAD SWAP1 POP PUSH2 0x632 DUP2 PUSH2 0x60C JUMP JUMPDEST SWAP3 SWAP2 POP POP JUMP JUMPDEST PUSH1 0x0 PUSH1 0x20 DUP3 DUP5 SUB SLT ISZERO PUSH2 0x64E JUMPI PUSH2 0x64D PUSH2 0x5F8 JUMP JUMPDEST JUMPDEST PUSH1 0x0 PUSH2 0x65C DUP5 DUP3 DUP6 ADD PUSH2 0x623 JUMP JUMPDEST SWAP2 POP POP SWAP3 SWAP2 POP POP JUMP JUMPDEST PUSH2 0x66E DUP2 PUSH2 0x602 JUMP JUMPDEST DUP3 MSTORE POP POP JUMP JUMPDEST PUSH1 0x0 PUSH1 0xFF DUP3 AND SWAP1 POP SWAP2 SWAP1 POP JUMP JUMPDEST PUSH2 0x68A DUP2 PUSH2 0x674 JUMP JUMPDEST DUP3 MSTORE POP POP JUMP JUMPDEST PUSH1 0x0 PUSH20 0xFFFFFFFFFFFFFFFFFFFFFFFFFFFFFFFFFFFFFFFF DUP3 AND SWAP1 POP SWAP2 SWAP1 POP JUMP JUMPDEST PUSH1 0x0 PUSH2 0x6BB DUP3 PUSH2 0x690 JUMP JUMPDEST SWAP1 POP SWAP2 SWAP1 POP JUMP JUMPDEST PUSH2 0x6CB DUP2 PUSH2 0x6B0 JUMP JUMPDEST DUP3 MSTORE POP POP JUMP JUMPDEST PUSH1 0x0 DUP2 SWAP1 POP SWAP2 SWAP1 POP JUMP JUMPDEST PUSH2 0x6E4 DUP2 PUSH2 0x6D1 JUMP JUMPDEST DUP3 MSTORE POP POP JUMP JUMPDEST PUSH1 0x0 PUSH1 0xA0 DUP3 ADD SWAP1 POP PUSH2 0x6FF PUSH1 0x0 DUP4 ADD DUP9 PUSH2 0x665 JUMP JUMPDEST PUSH2 0x70C PUSH1 0x20 DUP4 ADD DUP8 PUSH2 0x681 JUMP JUMPDEST PUSH2 0x719 PUSH1 0x40 DUP4 ADD DUP7 PUSH2 0x6C2 JUMP JUMPDEST PUSH2 0x726 PUSH1 0x60 DUP4 ADD DUP6 PUSH2 0x6DB JUMP JUMPDEST PUSH2 0x733 PUSH1 0x80 DUP4 ADD DUP5 PUSH2 0x6C2 JUMP JUMPDEST SWAP7 SWAP6 POP POP POP POP POP POP JUMP JUMPDEST PUSH1 0x0 DUP2 SWAP1 POP SWAP2 SWAP1 POP JUMP JUMPDEST PUSH1 0x0 PUSH2 0x762 PUSH2 0x75D PUSH2 0x758 DUP5 PUSH2 0x690 JUMP JUMPDEST PUSH2 0x73D JUMP JUMPDEST PUSH2 0x690 JUMP JUMPDEST SWAP1 POP SWAP2 SWAP1 POP JUMP JUMPDEST PUSH1 0x0 PUSH2 0x774 DUP3 PUSH2 0x747 JUMP JUMPDEST SWAP1 POP SWAP2 SWAP1 POP JUMP JUMPDEST PUSH1 0x0 PUSH2 0x786 DUP3 PUSH2 0x769 JUMP JUMPDEST SWAP1 POP SWAP2 SWAP1 POP JUMP JUMPDEST PUSH2 0x796 DUP2 PUSH2 0x77B JUMP JUMPDEST DUP3 MSTORE POP POP JUMP JUMPDEST PUSH1 0x0 PUSH1 0x20 DUP3 ADD SWAP1 POP PUSH2 0x7B1 PUSH1 0x0 DUP4 ADD DUP5 PUSH2 0x78D JUMP JUMPDEST SWAP3 SWAP2 POP POP JUMP JUMPDEST PUSH1 0x0 PUSH2 0x7C2 DUP3 PUSH2 0x690 JUMP JUMPDEST SWAP1 POP SWAP2 SWAP1 POP JUMP JUMPDEST PUSH2 0x7D2 DUP2 PUSH2 0x7B7 JUMP JUMPDEST DUP3 MSTORE POP POP JUMP JUMPDEST PUSH1 0x0 PUSH1 0x20 DUP3 ADD SWAP1 POP PUSH2 0x7ED PUSH1 0x0 DUP4 ADD DUP5 PUSH2 0x7C9 JUMP JUMPDEST SWAP3 SWAP2 POP POP JUMP JUMPDEST PUSH2 0x7FC DUP2 PUSH2 0x6D1 JUMP JUMPDEST DUP2 EQ PUSH2 0x807 JUMPI PUSH1 0x0 DUP1 REVERT JUMPDEST POP JUMP JUMPDEST PUSH1 0x0 DUP2 CALLDATALOAD SWAP1 POP PUSH2 0x819 DUP2 PUSH2 0x7F3 JUMP JUMPDEST SWAP3 SWAP2 POP POP JUMP JUMPDEST PUSH1 0x0 PUSH1 0x20 DUP3 DUP5 SUB SLT ISZERO PUSH2 0x835 JUMPI PUSH2 0x834 PUSH2 0x5F8 JUMP JUMPDEST JUMPDEST PUSH1 0x0 PUSH2 0x843 DUP5 DUP3 DUP6 ADD PUSH2 0x80A JUMP JUMPDEST SWAP2 POP POP SWAP3 SWAP2 POP POP JUMP JUMPDEST PUSH1 0x0 PUSH1 0x20 DUP3 ADD SWAP1 POP PUSH2 0x861 PUSH1 0x0 DUP4 ADD DUP5 PUSH2 0x665 JUMP JUMPDEST SWAP3 SWAP2 POP POP JUMP JUMPDEST PUSH1 0x0 DUP1 REVERT JUMPDEST PUSH1 0x0 DUP1 REVERT JUMPDEST PUSH1 0x0 PUSH1 0x1F NOT PUSH1 0x1F DUP4 ADD AND SWAP1 POP SWAP2 SWAP1 POP JUMP JUMPDEST PUSH32 0x4E487B7100000000000000000000000000000000000000000000000000000000 PUSH1 0x0 MSTORE PUSH1 0x41 PUSH1 0x4 MSTORE PUSH1 0x24 PUSH1 0x0 REVERT JUMPDEST PUSH2 0x8BA DUP3 PUSH2 0x871 JUMP JUMPDEST DUP2 ADD DUP2 DUP2 LT PUSH8 0xFFFFFFFFFFFFFFFF DUP3 GT OR ISZERO PUSH2 0x8D9 JUMPI PUSH2 0x8D8 PUSH2 0x882 JUMP JUMPDEST JUMPDEST DUP1 PUSH1 0x40 MSTORE POP POP POP JUMP JUMPDEST PUSH1 0x0 PUSH2 0x8EC PUSH2 0x5EE JUMP JUMPDEST SWAP1 POP PUSH2 0x8F8 DUP3 DUP3 PUSH2 0x8B1 JUMP JUMPDEST SWAP2 SWAP1 POP JUMP JUMPDEST PUSH1 0x0 PUSH8 0xFFFFFFFFFFFFFFFF DUP3 GT ISZERO PUSH2 0x918 JUMPI PUSH2 0x917 PUSH2 0x882 JUMP JUMPDEST JUMPDEST PUSH2 0x921 DUP3 PUSH2 0x871 JUMP JUMPDEST SWAP1 POP PUSH1 0x20 DUP2 ADD SWAP1 POP SWAP2 SWAP1 POP JUMP JUMPDEST DUP3 DUP2 DUP4 CALLDATACOPY PUSH1 0x0 DUP4 DUP4 ADD MSTORE POP POP POP JUMP JUMPDEST PUSH1 0x0 PUSH2 0x950 PUSH2 0x94B DUP5 PUSH2 0x8FD JUMP JUMPDEST PUSH2 0x8E2 JUMP JUMPDEST SWAP1 POP DUP3 DUP2 MSTORE PUSH1 0x20 DUP2 ADD DUP5 DUP5 DUP5 ADD GT ISZERO PUSH2 0x96C JUMPI PUSH2 0x96B PUSH2 0x86C JUMP JUMPDEST JUMPDEST PUSH2 0x977 DUP5 DUP3 DUP6 PUSH2 0x92E JUMP JUMPDEST POP SWAP4 SWAP3 POP POP POP JUMP JUMPDEST PUSH1 0x0 DUP3 PUSH1 0x1F DUP4 ADD SLT PUSH2 0x994 JUMPI PUSH2 0x993 PUSH2 0x867 JUMP JUMPDEST JUMPDEST DUP2 CALLDATALOAD PUSH2 0x9A4 DUP5 DUP3 PUSH1 0x20 DUP7 ADD PUSH2 0x93D JUMP JUMPDEST SWAP2 POP POP SWAP3 SWAP2 POP POP JUMP JUMPDEST PUSH1 0x0 DUP1 PUSH1 0x40 DUP4 DUP6 SUB SLT ISZERO PUSH2 0x9C4 JUMPI PUSH2 0x9C3 PUSH2 0x5F8 JUMP JUMPDEST JUMPDEST PUSH1 0x0 DUP4 ADD CALLDATALOAD PUSH8 0xFFFFFFFFFFFFFFFF DUP2 GT ISZERO PUSH2 0x9E2 JUMPI PUSH2 0x9E1 PUSH2 0x5FD JUMP JUMPDEST JUMPDEST PUSH2 0x9EE DUP6 DUP3 DUP7 ADD PUSH2 0x97F JUMP JUMPDEST SWAP3 POP POP PUSH1 0x20 PUSH2 0x9FF DUP6 DUP3 DUP7 ADD PUSH2 0x80A JUMP JUMPDEST SWAP2 POP POP SWAP3 POP SWAP3 SWAP1 POP JUMP JUMPDEST PUSH1 0x0 DUP2 MLOAD SWAP1 POP PUSH2 0xA18 DUP2 PUSH2 0x60C JUMP JUMPDEST SWAP3 SWAP2 POP POP JUMP JUMPDEST PUSH2 0xA27 DUP2 PUSH2 0x674 JUMP JUMPDEST DUP2 EQ PUSH2 0xA32 JUMPI PUSH1 0x0 DUP1 REVERT JUMPDEST POP JUMP JUMPDEST PUSH1 0x0 DUP2 MLOAD SWAP1 POP PUSH2 0xA44 DUP2 PUSH2 0xA1E JUMP JUMPDEST SWAP3 SWAP2 POP POP JUMP JUMPDEST PUSH2 0xA53 DUP2 PUSH2 0x6B0 JUMP JUMPDEST DUP2 EQ PUSH2 0xA5E JUMPI PUSH1 0x0 DUP1 REVERT JUMPDEST POP JUMP JUMPDEST PUSH1 0x0 DUP2 MLOAD SWAP1 POP PUSH2 0xA70 DUP2 PUSH2 0xA4A JUMP JUMPDEST SWAP3 SWAP2 POP POP JUMP JUMPDEST PUSH1 0x0 DUP2 MLOAD SWAP1 POP PUSH2 0xA85 DUP2 PUSH2 0x7F3 JUMP JUMPDEST SWAP3 SWAP2 POP POP JUMP JUMPDEST PUSH1 0x0 DUP1 PUSH1 0x0 DUP1 PUSH1 0x0 PUSH1 0xA0 DUP7 DUP9 SUB SLT ISZERO PUSH2 0xAA7 JUMPI PUSH2 0xAA6 PUSH2 0x5F8 JUMP JUMPDEST JUMPDEST PUSH1 0x0 PUSH2 0xAB5 DUP9 DUP3 DUP10 ADD PUSH2 0xA09 JUMP JUMPDEST SWAP6 POP POP PUSH1 0x20 PUSH2 0xAC6 DUP9 DUP3 DUP10 ADD PUSH2 0xA35 JUMP JUMPDEST SWAP5 POP POP PUSH1 0x40 PUSH2 0xAD7 DUP9 DUP3 DUP10 ADD PUSH2 0xA61 JUMP JUMPDEST SWAP4 POP POP PUSH1 0x60 PUSH2 0xAE8 DUP9 DUP3 DUP10 ADD PUSH2 0xA76 JUMP JUMPDEST SWAP3 POP POP PUSH1 0x80 PUSH2 0xAF9 DUP9 DUP3 DUP10 ADD PUSH2 0xA61 JUMP JUMPDEST SWAP2 POP POP SWAP3 SWAP6 POP SWAP3 SWAP6 SWAP1 SWAP4 POP JUMP JUMPDEST PUSH1 0x0 DUP2 SWAP1 POP SWAP2 SWAP1 POP JUMP JUMPDEST PUSH2 0xB21 PUSH2 0xB1C DUP3 PUSH2 0x6D1 JUMP JUMPDEST PUSH2 0xB06 JUMP JUMPDEST DUP3 MSTORE POP POP JUMP JUMPDEST PUSH1 0x0 PUSH2 0xB33 DUP3 DUP5 PUSH2 0xB10 JUMP JUMPDEST PUSH1 0x20 DUP3 ADD SWAP2 POP DUP2 SWAP1 POP SWAP3 SWAP2 POP POP JUMP JUMPDEST PUSH1 0x0 DUP2 MLOAD SWAP1 POP SWAP2 SWAP1 POP JUMP JUMPDEST PUSH1 0x0 DUP2 SWAP1 POP SWAP3 SWAP2 POP POP JUMP JUMPDEST PUSH1 0x0 JUMPDEST DUP4 DUP2 LT ISZERO PUSH2 0xB76 JUMPI DUP1 DUP3 ADD MLOAD DUP2 DUP5 ADD MSTORE PUSH1 0x20 DUP2 ADD SWAP1 POP PUSH2 0xB5B JUMP JUMPDEST PUSH1 0x0 DUP5 DUP5 ADD MSTORE POP POP POP POP JUMP JUMPDEST PUSH1 0x0 PUSH2 0xB8D DUP3 PUSH2 0xB42 JUMP JUMPDEST PUSH2 0xB97 DUP2 DUP6 PUSH2 0xB4D JUMP JUMPDEST SWAP4 POP PUSH2 0xBA7 DUP2 DUP6 PUSH1 0x20 DUP7 ADD PUSH2 0xB58 JUMP JUMPDEST DUP1 DUP5 ADD SWAP2 POP POP SWAP3 SWAP2 POP POP JUMP JUMPDEST PUSH1 0x0 PUSH2 0xBBF DUP3 DUP6 PUSH2 0xB82 JUMP JUMPDEST SWAP2 POP PUSH2 0xBCB DUP3 DUP5 PUSH2 0xB10 JUMP JUMPDEST PUSH1 0x20 DUP3 ADD SWAP2 POP DUP2 SWAP1 POP SWAP4 SWAP3 POP POP POP JUMP JUMPDEST PUSH1 0x0 DUP3 DUP3 MSTORE PUSH1 0x20 DUP3 ADD SWAP1 POP SWAP3 SWAP2 POP POP JUMP JUMPDEST PUSH32 0x50696C6C20646F6573206E6F7420657869737400000000000000000000000000 PUSH1 0x0 DUP3 ADD MSTORE POP JUMP JUMPDEST PUSH1 0x0 PUSH2 0xC22 PUSH1 0x13 DUP4 PUSH2 0xBDB JUMP JUMPDEST SWAP2 POP PUSH2 0xC2D DUP3 PUSH2 0xBEC JUMP JUMPDEST PUSH1 0x20 DUP3 ADD SWAP1 POP SWAP2 SWAP1 POP JUMP JUMPDEST PUSH1 0x0 PUSH1 0x20 DUP3 ADD SWAP1 POP DUP2 DUP2 SUB PUSH1 0x0 DUP4 ADD MSTORE PUSH2 0xC51 DUP2 PUSH2 0xC15 JUMP JUMPDEST SWAP1 POP SWAP2 SWAP1 POP JUMP JUMPDEST PUSH32 0x50696C6C206973206E6F7420636F6E73756D6564000000000000000000000000 PUSH1 0x0 DUP3 ADD MSTORE POP JUMP JUMPDEST PUSH1 0x0 PUSH2 0xC8E PUSH1 0x14 DUP4 PUSH2 0xBDB JUMP JUMPDEST SWAP2 POP PUSH2 0xC99 DUP3 PUSH2 0xC58 JUMP JUMPDEST PUSH1 0x20 DUP3 ADD SWAP1 POP SWAP2 SWAP1 POP JUMP JUMPDEST PUSH1 0x0 PUSH1 0x20 DUP3 ADD SWAP1 POP DUP2 DUP2 SUB PUSH1 0x0 DUP4 ADD MSTORE PUSH2 0xCBD DUP2 PUSH2 0xC81 JUMP JUMPDEST SWAP1 POP SWAP2 SWAP1 POP JUMP JUMPDEST PUSH1 0x0 PUSH2 0xCCF DUP3 PUSH2 0xB42 JUMP JUMPDEST PUSH2 0xCD9 DUP2 DUP6 PUSH2 0xBDB JUMP JUMPDEST SWAP4 POP PUSH2 0xCE9 DUP2 DUP6 PUSH1 0x20 DUP7 ADD PUSH2 0xB58 JUMP JUMPDEST PUSH2 0xCF2 DUP2 PUSH2 0x871 JUMP JUMPDEST DUP5 ADD SWAP2 POP POP SWAP3 SWAP2 POP POP JUMP JUMPDEST PUSH1 0x0 PUSH1 0x60 DUP3 ADD SWAP1 POP DUP2 DUP2 SUB PUSH1 0x0 DUP4 ADD MSTORE PUSH2 0xD17 DUP2 DUP7 PUSH2 0xCC4 JUMP JUMPDEST SWAP1 POP PUSH2 0xD26 PUSH1 0x20 DUP4 ADD DUP6 PUSH2 0x6DB JUMP JUMPDEST PUSH2 0xD33 PUSH1 0x40 DUP4 ADD DUP5 PUSH2 0x6C2 JUMP JUMPDEST SWAP5 SWAP4 POP POP POP POP JUMP JUMPDEST PUSH32 0x50696C6C2073746174757320757064617465206661696C656400000000000000 PUSH1 0x0 DUP3 ADD MSTORE POP JUMP JUMPDEST PUSH1 0x0 PUSH2 0xD71 PUSH1 0x19 DUP4 PUSH2 0xBDB JUMP JUMPDEST SWAP2 POP PUSH2 0xD7C DUP3 PUSH2 0xD3B JUMP JUMPDEST PUSH1 0x20 DUP3 ADD SWAP1 POP SWAP2 SWAP1 POP JUMP JUMPDEST PUSH1 0x0 PUSH1 0x20 DUP3 ADD SWAP1 POP DUP2 DUP2 SUB PUSH1 0x0 DUP4 ADD MSTORE PUSH2 0xDA0 DUP2 PUSH2 0xD64 JUMP JUMPDEST SWAP1 POP SWAP2 SWAP1 POP JUMP JUMPDEST PUSH1 0x0 PUSH1 0x40 DUP3 ADD SWAP1 POP PUSH2 0xDBC PUSH1 0x0 DUP4 ADD DUP6 PUSH2 0x6DB JUMP JUMPDEST PUSH2 0xDC9 PUSH1 0x20 DUP4 ADD DUP5 PUSH2 0x6C2 JUMP JUMPDEST SWAP4 SWAP3 POP POP POP JUMP INVALID LOG2 PUSH5 0x6970667358 0x22 SLT KECCAK256 DUP2 0xC1 JUMPI SDIV 0xDC PUSH24 0x1EA8C96538C96D1D9798AD334B911DA07561552AFBB7C99C 0xB6 CHAINID PUSH5 0x736F6C6343 STOP ADDMOD XOR STOP CALLER "},"methodIdentifiers":{"consumePill(string,uint256)":"f87c9483","keccakOfNumber(uint256)":"f03804fe","manufacturer()":"74754282","pillCreator()":"798c0c79","viewData(bytes32)":"054089a5"}}}}}