{
  "_format": "hh-sol-artifact-1",
  "contractName": "Consumer",
  "sourceName": "contracts/Consumer.sol",
  "abi": [
    {
      "inputs": [
        {
          "internalType": "address",
          "name": "_manufacturerAddress",
          "type": "address"
        }
      ],
      "stateMutability": "nonpayable",
      "type": "constructor"
    },
    {
      "anonymous": false,
      "inputs": [
        {
          "indexed": true,
          "internalType": "bytes32",
          "name": "secret",
          "type": "bytes32"
        },
        {
          "indexed": false,
          "internalType": "uint256",
          "name": "timestamp",
          "type": "uint256"
        },
        {
          "indexed": false,
          "internalType": "address",
          "name": "consumer",
          "type": "address"
        }
      ],
      "name": "EatPill",
      "type": "event"
    },
    {
      "inputs": [
        {
          "internalType": "uint256",
          "name": "_productionSequence",
          "type": "uint256"
        },
        {
          "internalType": "string",
          "name": "_sku",
          "type": "string"
        },
        {
          "internalType": "uint256",
          "name": "_timestamp",
          "type": "uint256"
        }
      ],
      "name": "consumePill",
      "outputs": [],
      "stateMutability": "payable",
      "type": "function"
    },
    {
      "inputs": [
        {
          "internalType": "uint256",
          "name": "_temp",
          "type": "uint256"
        }
      ],
      "name": "keccakOfNumber",
      "outputs": [
        {
          "internalType": "bytes32",
          "name": "",
          "type": "bytes32"
        }
      ],
      "stateMutability": "pure",
      "type": "function"
    },
    {
      "inputs": [],
      "name": "manufacturer",
      "outputs": [
        {
          "internalType": "contract Manufacturer",
          "name": "",
          "type": "address"
        }
      ],
      "stateMutability": "view",
      "type": "function"
    },
    {
      "inputs": [],
      "name": "pillCreator",
      "outputs": [
        {
          "internalType": "address payable",
          "name": "",
          "type": "address"
        }
      ],
      "stateMutability": "view",
      "type": "function"
    },
    {
      "inputs": [
        {
          "internalType": "bytes32",
          "name": "_secret",
          "type": "bytes32"
        }
      ],
      "name": "viewData",
      "outputs": [
        {
          "internalType": "bytes32",
          "name": "",
          "type": "bytes32"
        },
        {
          "internalType": "uint8",
          "name": "",
          "type": "uint8"
        },
        {
          "internalType": "address",
          "name": "",
          "type": "address"
        },
        {
          "internalType": "uint256",
          "name": "",
          "type": "uint256"
        },
        {
          "internalType": "address",
          "name": "",
          "type": "address"
        }
      ],
      "stateMutability": "view",
      "type": "function"
    }
  ],
  "bytecode": "0x60806040523480156200001157600080fd5b5060405162001039380380620010398339818101604052810190620000379190620001ba565b806000806101000a81548173ffffffffffffffffffffffffffffffffffffffff021916908373ffffffffffffffffffffffffffffffffffffffff16021790555060008054906101000a900473ffffffffffffffffffffffffffffffffffffffff1673ffffffffffffffffffffffffffffffffffffffff1663ce606ee06040518163ffffffff1660e01b8152600401602060405180830381865afa158015620000e3573d6000803e3d6000fd5b505050506040513d601f19601f82011682018060405250810190620001099190620001ba565b600160006101000a81548173ffffffffffffffffffffffffffffffffffffffff021916908373ffffffffffffffffffffffffffffffffffffffff16021790555050620001ec565b600080fd5b600073ffffffffffffffffffffffffffffffffffffffff82169050919050565b6000620001828262000155565b9050919050565b620001948162000175565b8114620001a057600080fd5b50565b600081519050620001b48162000189565b92915050565b600060208284031215620001d357620001d262000150565b5b6000620001e384828501620001a3565b91505092915050565b610e3d80620001fc6000396000f3fe60806040526004361061004a5760003560e01c8063054089a51461004f5780637475428214610090578063798c0c79146100bb578063af6dba3d146100e6578063f03804fe14610102575b600080fd5b34801561005b57600080fd5b506100766004803603810190610071919061063d565b61013f565b6040516100879594939291906106ef565b60405180910390f35b34801561009c57600080fd5b506100a56101f5565b6040516100b291906107a1565b60405180910390f35b3480156100c757600080fd5b506100d0610219565b6040516100dd91906107dd565b60405180910390f35b61010060048036038101906100fb919061096a565b61023f565b005b34801561010e57600080fd5b50610129600480360381019061012491906109d9565b6105c3565b6040516101369190610a06565b60405180910390f35b60008060008060008060009054906101000a900473ffffffffffffffffffffffffffffffffffffffff1673ffffffffffffffffffffffffffffffffffffffff1663c76b8b31876040518263ffffffff1660e01b81526004016101a19190610a06565b60a060405180830381865afa1580156101be573d6000803e3d6000fd5b505050506040513d601f19601f820116820180604052508101906101e29190610aa3565b9450945094509450945091939590929450565b60008054906101000a900473ffffffffffffffffffffffffffffffffffffffff1681565b600160009054906101000a900473ffffffffffffffffffffffffffffffffffffffff1681565b600083838360405160200161025693929190610bb0565b60405160208183030381529060405280519060200120905060008060008054906101000a900473ffffffffffffffffffffffffffffffffffffffff1673ffffffffffffffffffffffffffffffffffffffff1663c76b8b31846040518263ffffffff1660e01b81526004016102ca9190610a06565b60a060405180830381865afa1580156102e7573d6000803e3d6000fd5b505050506040513d601f19601f8201168201806040525081019061030b9190610aa3565b505050915091506000801b8203610357576040517f08c379a000000000000000000000000000000000000000000000000000000000815260040161034e90610c46565b60405180910390fd5b60008160ff161461039d576040517f08c379a000000000000000000000000000000000000000000000000000000000815260040161039490610cb2565b60405180910390fd5b60008054906101000a900473ffffffffffffffffffffffffffffffffffffffff1673ffffffffffffffffffffffffffffffffffffffff166376813f26878787336040518563ffffffff1660e01b81526004016103fc9493929190610d0b565b600060405180830381600087803b15801561041657600080fd5b505af115801561042a573d6000803e3d6000fd5b50505050600160009054906101000a900473ffffffffffffffffffffffffffffffffffffffff1673ffffffffffffffffffffffffffffffffffffffff166108fc349081150290604051600060405180830381858888f19350505050158015610496573d6000803e3d6000fd5b5060008060009054906101000a900473ffffffffffffffffffffffffffffffffffffffff1673ffffffffffffffffffffffffffffffffffffffff1663c76b8b31856040518263ffffffff1660e01b81526004016104f39190610a06565b60a060405180830381865afa158015610510573d6000803e3d6000fd5b505050506040513d601f19601f820116820180604052508101906105349190610aa3565b50505091505060018160ff1614610580576040517f08c379a000000000000000000000000000000000000000000000000000000000815260040161057790610da3565b60405180910390fd5b827f0f95ac21588442a75e05c540b43f5bf31de5e61a86ad6e197836a7427a8dcbc986336040516105b2929190610dc3565b60405180910390a250505050505050565b6000816040516020016105d69190610dec565b604051602081830303815290604052805190602001209050919050565b6000604051905090565b600080fd5b600080fd5b6000819050919050565b61061a81610607565b811461062557600080fd5b50565b60008135905061063781610611565b92915050565b600060208284031215610653576106526105fd565b5b600061066184828501610628565b91505092915050565b61067381610607565b82525050565b600060ff82169050919050565b61068f81610679565b82525050565b600073ffffffffffffffffffffffffffffffffffffffff82169050919050565b60006106c082610695565b9050919050565b6106d0816106b5565b82525050565b6000819050919050565b6106e9816106d6565b82525050565b600060a082019050610704600083018861066a565b6107116020830187610686565b61071e60408301866106c7565b61072b60608301856106e0565b61073860808301846106c7565b9695505050505050565b6000819050919050565b600061076761076261075d84610695565b610742565b610695565b9050919050565b60006107798261074c565b9050919050565b600061078b8261076e565b9050919050565b61079b81610780565b82525050565b60006020820190506107b66000830184610792565b92915050565b60006107c782610695565b9050919050565b6107d7816107bc565b82525050565b60006020820190506107f260008301846107ce565b92915050565b610801816106d6565b811461080c57600080fd5b50565b60008135905061081e816107f8565b92915050565b600080fd5b600080fd5b6000601f19601f8301169050919050565b7f4e487b7100000000000000000000000000000000000000000000000000000000600052604160045260246000fd5b6108778261082e565b810181811067ffffffffffffffff821117156108965761089561083f565b5b80604052505050565b60006108a96105f3565b90506108b5828261086e565b919050565b600067ffffffffffffffff8211156108d5576108d461083f565b5b6108de8261082e565b9050602081019050919050565b82818337600083830152505050565b600061090d610908846108ba565b61089f565b90508281526020810184848401111561092957610928610829565b5b6109348482856108eb565b509392505050565b600082601f83011261095157610950610824565b5b81356109618482602086016108fa565b91505092915050565b600080600060608486031215610983576109826105fd565b5b60006109918682870161080f565b935050602084013567ffffffffffffffff8111156109b2576109b1610602565b5b6109be8682870161093c565b92505060406109cf8682870161080f565b9150509250925092565b6000602082840312156109ef576109ee6105fd565b5b60006109fd8482850161080f565b91505092915050565b6000602082019050610a1b600083018461066a565b92915050565b600081519050610a3081610611565b92915050565b610a3f81610679565b8114610a4a57600080fd5b50565b600081519050610a5c81610a36565b92915050565b610a6b816106b5565b8114610a7657600080fd5b50565b600081519050610a8881610a62565b92915050565b600081519050610a9d816107f8565b92915050565b600080600080600060a08688031215610abf57610abe6105fd565b5b6000610acd88828901610a21565b9550506020610ade88828901610a4d565b9450506040610aef88828901610a79565b9350506060610b0088828901610a8e565b9250506080610b1188828901610a79565b9150509295509295909350565b6000819050919050565b610b39610b34826106d6565b610b1e565b82525050565b600081519050919050565b600081905092915050565b60005b83811015610b73578082015181840152602081019050610b58565b60008484015250505050565b6000610b8a82610b3f565b610b948185610b4a565b9350610ba4818560208601610b55565b80840191505092915050565b6000610bbc8286610b28565b602082019150610bcc8285610b7f565b9150610bd88284610b28565b602082019150819050949350505050565b600082825260208201905092915050565b7f50696c6c20646f6573206e6f7420657869737400000000000000000000000000600082015250565b6000610c30601383610be9565b9150610c3b82610bfa565b602082019050919050565b60006020820190508181036000830152610c5f81610c23565b9050919050565b7f50696c6c206973206e6f7420636f6e73756d6564000000000000000000000000600082015250565b6000610c9c601483610be9565b9150610ca782610c66565b602082019050919050565b60006020820190508181036000830152610ccb81610c8f565b9050919050565b6000610cdd82610b3f565b610ce78185610be9565b9350610cf7818560208601610b55565b610d008161082e565b840191505092915050565b6000608082019050610d2060008301876106e0565b8181036020830152610d328186610cd2565b9050610d4160408301856106e0565b610d4e60608301846106c7565b95945050505050565b7f50696c6c2073746174757320757064617465206661696c656400000000000000600082015250565b6000610d8d601983610be9565b9150610d9882610d57565b602082019050919050565b60006020820190508181036000830152610dbc81610d80565b9050919050565b6000604082019050610dd860008301856106e0565b610de560208301846106c7565b9392505050565b6000610df88284610b28565b6020820191508190509291505056fea2646970667358221220a632ec7ae2ef0026da5f326e50f22cb325e1b74a8d6399825a438f8d3cb2491b64736f6c63430008180033",
  "linkReferences": {},
  "deployedLinkReferences": {}
}