{
  "_format": "hh-sol-artifact-1",
  "contractName": "Consumer",
  "sourceName": "contracts/Consumer.sol",
  "abi": [
    {
      "inputs": [
        {
          "internalType": "address",
          "name": "_manufacturerAddress",
          "type": "address"
        }
      ],
      "stateMutability": "nonpayable",
      "type": "constructor"
    },
    {
      "anonymous": false,
      "inputs": [
        {
          "indexed": true,
          "internalType": "uint256",
          "name": "_productionSequence",
          "type": "uint256"
        },
        {
          "indexed": false,
          "internalType": "string",
          "name": "_sku",
          "type": "string"
        },
        {
          "indexed": false,
          "internalType": "uint256",
          "name": "_timestamp",
          "type": "uint256"
        },
        {
          "indexed": false,
          "internalType": "address",
          "name": "consumer",
          "type": "address"
        }
      ],
      "name": "EatPill",
      "type": "event"
    },
    {
      "inputs": [
        {
          "internalType": "uint256",
          "name": "_productionSequence",
          "type": "uint256"
        },
        {
          "internalType": "string",
          "name": "_sku",
          "type": "string"
        },
        {
          "internalType": "uint256",
          "name": "_timestamp",
          "type": "uint256"
        }
      ],
      "name": "consumePill",
      "outputs": [],
      "stateMutability": "payable",
      "type": "function"
    },
    {
      "inputs": [
        {
          "internalType": "uint256",
          "name": "_temp",
          "type": "uint256"
        }
      ],
      "name": "keccakOfNumber",
      "outputs": [
        {
          "internalType": "bytes32",
          "name": "",
          "type": "bytes32"
        }
      ],
      "stateMutability": "pure",
      "type": "function"
    },
    {
      "inputs": [],
      "name": "manufacturer",
      "outputs": [
        {
          "internalType": "contract Manufacturer",
          "name": "",
          "type": "address"
        }
      ],
      "stateMutability": "view",
      "type": "function"
    },
    {
      "inputs": [],
      "name": "pillCreator",
      "outputs": [
        {
          "internalType": "address payable",
          "name": "",
          "type": "address"
        }
      ],
      "stateMutability": "view",
      "type": "function"
    },
    {
      "inputs": [
        {
          "internalType": "uint256",
          "name": "_productionSequence",
          "type": "uint256"
        },
        {
          "internalType": "string",
          "name": "_sku",
          "type": "string"
        },
        {
          "internalType": "uint256",
          "name": "_timestamp",
          "type": "uint256"
        }
      ],
      "name": "viewData",
      "outputs": [
        {
          "internalType": "uint256",
          "name": "",
          "type": "uint256"
        },
        {
          "internalType": "uint8",
          "name": "",
          "type": "uint8"
        },
        {
          "internalType": "address",
          "name": "",
          "type": "address"
        },
        {
          "internalType": "string",
          "name": "",
          "type": "string"
        },
        {
          "internalType": "uint256",
          "name": "",
          "type": "uint256"
        }
      ],
      "stateMutability": "view",
      "type": "function"
    }
  ],
  "bytecode": "0x608060405234801561001057600080fd5b5060405162000eb838038062000eb8833981810160405281019061003491906101ac565b806000806101000a81548173ffffffffffffffffffffffffffffffffffffffff021916908373ffffffffffffffffffffffffffffffffffffffff16021790555060008054906101000a900473ffffffffffffffffffffffffffffffffffffffff1673ffffffffffffffffffffffffffffffffffffffff1663ce606ee06040518163ffffffff1660e01b8152600401602060405180830381865afa1580156100df573d6000803e3d6000fd5b505050506040513d601f19601f8201168201806040525081019061010391906101ac565b600160006101000a81548173ffffffffffffffffffffffffffffffffffffffff021916908373ffffffffffffffffffffffffffffffffffffffff160217905550506101d9565b600080fd5b600073ffffffffffffffffffffffffffffffffffffffff82169050919050565b60006101798261014e565b9050919050565b6101898161016e565b811461019457600080fd5b50565b6000815190506101a681610180565b92915050565b6000602082840312156101c2576101c1610149565b5b60006101d084828501610197565b91505092915050565b610ccf80620001e96000396000f3fe60806040526004361061004a5760003560e01c8063747542821461004f578063798c0c791461007a578063af6dba3d146100a5578063c1e3d3fd146100c1578063f03804fe14610102575b600080fd5b34801561005b57600080fd5b5061006461013f565b604051610071919061056d565b60405180910390f35b34801561008657600080fd5b5061008f610163565b60405161009c91906105a9565b60405180910390f35b6100bf60048036038101906100ba9190610754565b610189565b005b3480156100cd57600080fd5b506100e860048036038101906100e39190610754565b6103fc565b6040516100f995949392919061088e565b60405180910390f35b34801561010e57600080fd5b50610129600480360381019061012491906108e8565b6104be565b604051610136919061092e565b60405180910390f35b60008054906101000a900473ffffffffffffffffffffffffffffffffffffffff1681565b600160009054906101000a900473ffffffffffffffffffffffffffffffffffffffff1681565b60008060008054906101000a900473ffffffffffffffffffffffffffffffffffffffff1673ffffffffffffffffffffffffffffffffffffffff166378226fc88686866040518463ffffffff1660e01b81526004016101e993929190610949565b600060405180830381865afa158015610206573d6000803e3d6000fd5b505050506040513d6000823e3d601f19601f8201168201806040525081019061022f9190610a64565b5050509150915060008203610279576040517f08c379a000000000000000000000000000000000000000000000000000000000815260040161027090610b47565b60405180910390fd5b60008160ff16146102bf576040517f08c379a00000000000000000000000000000000000000000000000000000000081526004016102b690610bb3565b60405180910390fd5b60008054906101000a900473ffffffffffffffffffffffffffffffffffffffff1673ffffffffffffffffffffffffffffffffffffffff166376813f26868686336040518563ffffffff1660e01b815260040161031e9493929190610bd3565b600060405180830381600087803b15801561033857600080fd5b505af115801561034c573d6000803e3d6000fd5b50505050600160009054906101000a900473ffffffffffffffffffffffffffffffffffffffff1673ffffffffffffffffffffffffffffffffffffffff166108fc349081150290604051600060405180830381858888f193505050501580156103b8573d6000803e3d6000fd5b50847fbbfc7153bd1b15f14aabe68958394bb4da389fd7e5ca401f4bf9ff8e4a02e94a8585336040516103ed93929190610c1f565b60405180910390a25050505050565b6000806000606060008060009054906101000a900473ffffffffffffffffffffffffffffffffffffffff1673ffffffffffffffffffffffffffffffffffffffff166378226fc88989896040518463ffffffff1660e01b815260040161046393929190610949565b600060405180830381865afa158015610480573d6000803e3d6000fd5b505050506040513d6000823e3d601f19601f820116820180604052508101906104a99190610a64565b94509450945094509450939792965093509350565b6000816040516020016104d19190610c7e565b604051602081830303815290604052805190602001209050919050565b600073ffffffffffffffffffffffffffffffffffffffff82169050919050565b6000819050919050565b600061053361052e610529846104ee565b61050e565b6104ee565b9050919050565b600061054582610518565b9050919050565b60006105578261053a565b9050919050565b6105678161054c565b82525050565b6000602082019050610582600083018461055e565b92915050565b6000610593826104ee565b9050919050565b6105a381610588565b82525050565b60006020820190506105be600083018461059a565b92915050565b6000604051905090565b600080fd5b600080fd5b6000819050919050565b6105eb816105d8565b81146105f657600080fd5b50565b600081359050610608816105e2565b92915050565b600080fd5b600080fd5b6000601f19601f8301169050919050565b7f4e487b7100000000000000000000000000000000000000000000000000000000600052604160045260246000fd5b61066182610618565b810181811067ffffffffffffffff821117156106805761067f610629565b5b80604052505050565b60006106936105c4565b905061069f8282610658565b919050565b600067ffffffffffffffff8211156106bf576106be610629565b5b6106c882610618565b9050602081019050919050565b82818337600083830152505050565b60006106f76106f2846106a4565b610689565b90508281526020810184848401111561071357610712610613565b5b61071e8482856106d5565b509392505050565b600082601f83011261073b5761073a61060e565b5b813561074b8482602086016106e4565b91505092915050565b60008060006060848603121561076d5761076c6105ce565b5b600061077b868287016105f9565b935050602084013567ffffffffffffffff81111561079c5761079b6105d3565b5b6107a886828701610726565b92505060406107b9868287016105f9565b9150509250925092565b6107cc816105d8565b82525050565b600060ff82169050919050565b6107e8816107d2565b82525050565b60006107f9826104ee565b9050919050565b610809816107ee565b82525050565b600081519050919050565b600082825260208201905092915050565b60005b8381101561084957808201518184015260208101905061082e565b60008484015250505050565b60006108608261080f565b61086a818561081a565b935061087a81856020860161082b565b61088381610618565b840191505092915050565b600060a0820190506108a360008301886107c3565b6108b060208301876107df565b6108bd6040830186610800565b81810360608301526108cf8185610855565b90506108de60808301846107c3565b9695505050505050565b6000602082840312156108fe576108fd6105ce565b5b600061090c848285016105f9565b91505092915050565b6000819050919050565b61092881610915565b82525050565b6000602082019050610943600083018461091f565b92915050565b600060608201905061095e60008301866107c3565b81810360208301526109708185610855565b905061097f60408301846107c3565b949350505050565b600081519050610996816105e2565b92915050565b6109a5816107d2565b81146109b057600080fd5b50565b6000815190506109c28161099c565b92915050565b6109d1816107ee565b81146109dc57600080fd5b50565b6000815190506109ee816109c8565b92915050565b6000610a07610a02846106a4565b610689565b905082815260208101848484011115610a2357610a22610613565b5b610a2e84828561082b565b509392505050565b600082601f830112610a4b57610a4a61060e565b5b8151610a5b8482602086016109f4565b91505092915050565b600080600080600060a08688031215610a8057610a7f6105ce565b5b6000610a8e88828901610987565b9550506020610a9f888289016109b3565b9450506040610ab0888289016109df565b935050606086015167ffffffffffffffff811115610ad157610ad06105d3565b5b610add88828901610a36565b9250506080610aee88828901610987565b9150509295509295909350565b7f50696c6c20646f6573206e6f7420657869737400000000000000000000000000600082015250565b6000610b3160138361081a565b9150610b3c82610afb565b602082019050919050565b60006020820190508181036000830152610b6081610b24565b9050919050565b7f50696c6c20616c6973206e6f7420636f6e73756d656400000000000000000000600082015250565b6000610b9d60168361081a565b9150610ba882610b67565b602082019050919050565b60006020820190508181036000830152610bcc81610b90565b9050919050565b6000608082019050610be860008301876107c3565b8181036020830152610bfa8186610855565b9050610c0960408301856107c3565b610c166060830184610800565b95945050505050565b60006060820190508181036000830152610c398186610855565b9050610c4860208301856107c3565b610c556040830184610800565b949350505050565b6000819050919050565b610c78610c73826105d8565b610c5d565b82525050565b6000610c8a8284610c67565b6020820191508190509291505056fea26469706673582212205e0457863b775573f66ab9f9c7aa6a07d51821cf200fbe2e36ddb7c42813510464736f6c63430008180033",
  "linkReferences": {},
  "deployedLinkReferences": {}
}