{
  "_format": "hh-sol-artifact-1",
  "contractName": "Consumer",
  "sourceName": "contracts/Consumer.sol",
  "abi": [
    {
      "inputs": [
        {
          "internalType": "address",
          "name": "_manufacturerAddress",
          "type": "address"
        }
      ],
      "stateMutability": "nonpayable",
      "type": "constructor"
    },
    {
      "anonymous": false,
      "inputs": [
        {
          "indexed": true,
          "internalType": "bytes32",
          "name": "secret",
          "type": "bytes32"
        },
        {
          "indexed": false,
          "internalType": "uint256",
          "name": "timestamp",
          "type": "uint256"
        },
        {
          "indexed": false,
          "internalType": "address",
          "name": "consumer",
          "type": "address"
        }
      ],
      "name": "EatPill",
      "type": "event"
    },
    {
      "inputs": [
        {
          "internalType": "string",
          "name": "_sku",
          "type": "string"
        },
        {
          "internalType": "uint256",
          "name": "_timestamp",
          "type": "uint256"
        }
      ],
      "name": "consumePill",
      "outputs": [],
      "stateMutability": "payable",
      "type": "function"
    },
    {
      "inputs": [
        {
          "internalType": "uint256",
          "name": "_temp",
          "type": "uint256"
        }
      ],
      "name": "keccakOfNumber",
      "outputs": [
        {
          "internalType": "bytes32",
          "name": "",
          "type": "bytes32"
        }
      ],
      "stateMutability": "pure",
      "type": "function"
    },
    {
      "inputs": [],
      "name": "manufacturer",
      "outputs": [
        {
          "internalType": "contract Manufacturer",
          "name": "",
          "type": "address"
        }
      ],
      "stateMutability": "view",
      "type": "function"
    },
    {
      "inputs": [],
      "name": "pillCreator",
      "outputs": [
        {
          "internalType": "address payable",
          "name": "",
          "type": "address"
        }
      ],
      "stateMutability": "view",
      "type": "function"
    },
    {
      "inputs": [
        {
          "internalType": "bytes32",
          "name": "_secret",
          "type": "bytes32"
        }
      ],
      "name": "viewData",
      "outputs": [
        {
          "internalType": "bytes32",
          "name": "",
          "type": "bytes32"
        },
        {
          "internalType": "uint8",
          "name": "",
          "type": "uint8"
        },
        {
          "internalType": "address",
          "name": "",
          "type": "address"
        },
        {
          "internalType": "uint256",
          "name": "",
          "type": "uint256"
        },
        {
          "internalType": "address",
          "name": "",
          "type": "address"
        }
      ],
      "stateMutability": "view",
      "type": "function"
    }
  ],
  "bytecode": "0x60806040523480156200001157600080fd5b5060405162001002380380620010028339818101604052810190620000379190620001ba565b806000806101000a81548173ffffffffffffffffffffffffffffffffffffffff021916908373ffffffffffffffffffffffffffffffffffffffff16021790555060008054906101000a900473ffffffffffffffffffffffffffffffffffffffff1673ffffffffffffffffffffffffffffffffffffffff1663ce606ee06040518163ffffffff1660e01b8152600401602060405180830381865afa158015620000e3573d6000803e3d6000fd5b505050506040513d601f19601f82011682018060405250810190620001099190620001ba565b600160006101000a81548173ffffffffffffffffffffffffffffffffffffffff021916908373ffffffffffffffffffffffffffffffffffffffff16021790555050620001ec565b600080fd5b600073ffffffffffffffffffffffffffffffffffffffff82169050919050565b6000620001828262000155565b9050919050565b620001948162000175565b8114620001a057600080fd5b50565b600081519050620001b48162000189565b92915050565b600060208284031215620001d357620001d262000150565b5b6000620001e384828501620001a3565b91505092915050565b610e0680620001fc6000396000f3fe60806040526004361061004a5760003560e01c8063054089a51461004f5780637475428214610090578063798c0c79146100bb578063f03804fe146100e6578063f87c948314610123575b600080fd5b34801561005b57600080fd5b5061007660048036038101906100719190610638565b61013f565b6040516100879594939291906106ea565b60405180910390f35b34801561009c57600080fd5b506100a56101f5565b6040516100b2919061079c565b60405180910390f35b3480156100c757600080fd5b506100d0610219565b6040516100dd91906107d8565b60405180910390f35b3480156100f257600080fd5b5061010d6004803603810190610108919061081f565b61023f565b60405161011a919061084c565b60405180910390f35b61013d600480360381019061013891906109ad565b61026f565b005b60008060008060008060009054906101000a900473ffffffffffffffffffffffffffffffffffffffff1673ffffffffffffffffffffffffffffffffffffffff1663c76b8b31876040518263ffffffff1660e01b81526004016101a1919061084c565b60a060405180830381865afa1580156101be573d6000803e3d6000fd5b505050506040513d601f19601f820116820180604052508101906101e29190610a8b565b9450945094509450945091939590929450565b60008054906101000a900473ffffffffffffffffffffffffffffffffffffffff1681565b600160009054906101000a900473ffffffffffffffffffffffffffffffffffffffff1681565b6000816040516020016102529190610b27565b604051602081830303815290604052805190602001209050919050565b60008282604051602001610284929190610bb3565b60405160208183030381529060405280519060200120905060008060008054906101000a900473ffffffffffffffffffffffffffffffffffffffff1673ffffffffffffffffffffffffffffffffffffffff1663c76b8b31846040518263ffffffff1660e01b81526004016102f8919061084c565b60a060405180830381865afa158015610315573d6000803e3d6000fd5b505050506040513d601f19601f820116820180604052508101906103399190610a8b565b505050915091506000801b8203610385576040517f08c379a000000000000000000000000000000000000000000000000000000000815260040161037c90610c38565b60405180910390fd5b60008160ff16146103cb576040517f08c379a00000000000000000000000000000000000000000000000000000000081526004016103c290610ca4565b60405180910390fd5b60008054906101000a900473ffffffffffffffffffffffffffffffffffffffff1673ffffffffffffffffffffffffffffffffffffffff16631f116b928686336040518463ffffffff1660e01b815260040161042893929190610cfd565b600060405180830381600087803b15801561044257600080fd5b505af1158015610456573d6000803e3d6000fd5b50505050600160009054906101000a900473ffffffffffffffffffffffffffffffffffffffff1673ffffffffffffffffffffffffffffffffffffffff166108fc349081150290604051600060405180830381858888f193505050501580156104c2573d6000803e3d6000fd5b5060008060009054906101000a900473ffffffffffffffffffffffffffffffffffffffff1673ffffffffffffffffffffffffffffffffffffffff1663c76b8b31856040518263ffffffff1660e01b815260040161051f919061084c565b60a060405180830381865afa15801561053c573d6000803e3d6000fd5b505050506040513d601f19601f820116820180604052508101906105609190610a8b565b50505091505060018160ff16146105ac576040517f08c379a00000000000000000000000000000000000000000000000000000000081526004016105a390610d87565b60405180910390fd5b827f0f95ac21588442a75e05c540b43f5bf31de5e61a86ad6e197836a7427a8dcbc986336040516105de929190610da7565b60405180910390a2505050505050565b6000604051905090565b600080fd5b600080fd5b6000819050919050565b61061581610602565b811461062057600080fd5b50565b6000813590506106328161060c565b92915050565b60006020828403121561064e5761064d6105f8565b5b600061065c84828501610623565b91505092915050565b61066e81610602565b82525050565b600060ff82169050919050565b61068a81610674565b82525050565b600073ffffffffffffffffffffffffffffffffffffffff82169050919050565b60006106bb82610690565b9050919050565b6106cb816106b0565b82525050565b6000819050919050565b6106e4816106d1565b82525050565b600060a0820190506106ff6000830188610665565b61070c6020830187610681565b61071960408301866106c2565b61072660608301856106db565b61073360808301846106c2565b9695505050505050565b6000819050919050565b600061076261075d61075884610690565b61073d565b610690565b9050919050565b600061077482610747565b9050919050565b600061078682610769565b9050919050565b6107968161077b565b82525050565b60006020820190506107b1600083018461078d565b92915050565b60006107c282610690565b9050919050565b6107d2816107b7565b82525050565b60006020820190506107ed60008301846107c9565b92915050565b6107fc816106d1565b811461080757600080fd5b50565b600081359050610819816107f3565b92915050565b600060208284031215610835576108346105f8565b5b60006108438482850161080a565b91505092915050565b60006020820190506108616000830184610665565b92915050565b600080fd5b600080fd5b6000601f19601f8301169050919050565b7f4e487b7100000000000000000000000000000000000000000000000000000000600052604160045260246000fd5b6108ba82610871565b810181811067ffffffffffffffff821117156108d9576108d8610882565b5b80604052505050565b60006108ec6105ee565b90506108f882826108b1565b919050565b600067ffffffffffffffff82111561091857610917610882565b5b61092182610871565b9050602081019050919050565b82818337600083830152505050565b600061095061094b846108fd565b6108e2565b90508281526020810184848401111561096c5761096b61086c565b5b61097784828561092e565b509392505050565b600082601f83011261099457610993610867565b5b81356109a484826020860161093d565b91505092915050565b600080604083850312156109c4576109c36105f8565b5b600083013567ffffffffffffffff8111156109e2576109e16105fd565b5b6109ee8582860161097f565b92505060206109ff8582860161080a565b9150509250929050565b600081519050610a188161060c565b92915050565b610a2781610674565b8114610a3257600080fd5b50565b600081519050610a4481610a1e565b92915050565b610a53816106b0565b8114610a5e57600080fd5b50565b600081519050610a7081610a4a565b92915050565b600081519050610a85816107f3565b92915050565b600080600080600060a08688031215610aa757610aa66105f8565b5b6000610ab588828901610a09565b9550506020610ac688828901610a35565b9450506040610ad788828901610a61565b9350506060610ae888828901610a76565b9250506080610af988828901610a61565b9150509295509295909350565b6000819050919050565b610b21610b1c826106d1565b610b06565b82525050565b6000610b338284610b10565b60208201915081905092915050565b600081519050919050565b600081905092915050565b60005b83811015610b76578082015181840152602081019050610b5b565b60008484015250505050565b6000610b8d82610b42565b610b978185610b4d565b9350610ba7818560208601610b58565b80840191505092915050565b6000610bbf8285610b82565b9150610bcb8284610b10565b6020820191508190509392505050565b600082825260208201905092915050565b7f50696c6c20646f6573206e6f7420657869737400000000000000000000000000600082015250565b6000610c22601383610bdb565b9150610c2d82610bec565b602082019050919050565b60006020820190508181036000830152610c5181610c15565b9050919050565b7f50696c6c206973206e6f7420636f6e73756d6564000000000000000000000000600082015250565b6000610c8e601483610bdb565b9150610c9982610c58565b602082019050919050565b60006020820190508181036000830152610cbd81610c81565b9050919050565b6000610ccf82610b42565b610cd98185610bdb565b9350610ce9818560208601610b58565b610cf281610871565b840191505092915050565b60006060820190508181036000830152610d178186610cc4565b9050610d2660208301856106db565b610d3360408301846106c2565b949350505050565b7f50696c6c2073746174757320757064617465206661696c656400000000000000600082015250565b6000610d71601983610bdb565b9150610d7c82610d3b565b602082019050919050565b60006020820190508181036000830152610da081610d64565b9050919050565b6000604082019050610dbc60008301856106db565b610dc960208301846106c2565b939250505056fea264697066735822122081c15705dc771ea8c96538c96d1d9798ad334b911da07561552afbb7c99cb64664736f6c63430008180033",
  "linkReferences": {},
  "deployedLinkReferences": {}
}