{
  "_format": "hh-sol-artifact-1",
  "contractName": "Manufacturer",
  "sourceName": "contracts/Manufacturer.sol",
  "abi": [
    {
      "inputs": [
        {
          "internalType": "string",
          "name": "_company",
          "type": "string"
        }
      ],
      "stateMutability": "nonpayable",
      "type": "constructor"
    },
    {
      "anonymous": false,
      "inputs": [
        {
          "indexed": false,
          "internalType": "string",
          "name": "message",
          "type": "string"
        },
        {
          "indexed": true,
          "internalType": "uint256",
          "name": "prod_num",
          "type": "uint256"
        },
        {
          "indexed": false,
          "internalType": "string",
          "name": "SKU",
          "type": "string"
        },
        {
          "indexed": false,
          "internalType": "bytes32",
          "name": "secret",
          "type": "bytes32"
        }
      ],
      "name": "PillCreated",
      "type": "event"
    },
    {
      "inputs": [
        {
          "internalType": "bytes32",
          "name": "",
          "type": "bytes32"
        }
      ],
      "name": "Pillbook",
      "outputs": [
        {
          "internalType": "uint256",
          "name": "prod_num",
          "type": "uint256"
        },
        {
          "internalType": "uint8",
          "name": "status",
          "type": "uint8"
        },
        {
          "internalType": "address",
          "name": "consumedBy",
          "type": "address"
        },
        {
          "internalType": "string",
          "name": "SKU",
          "type": "string"
        },
        {
          "internalType": "uint256",
          "name": "timestamp",
          "type": "uint256"
        }
      ],
      "stateMutability": "view",
      "type": "function"
    },
    {
      "inputs": [],
      "name": "company",
      "outputs": [
        {
          "internalType": "string",
          "name": "",
          "type": "string"
        }
      ],
      "stateMutability": "view",
      "type": "function"
    },
    {
      "inputs": [
        {
          "internalType": "uint256",
          "name": "_productionSequence",
          "type": "uint256"
        },
        {
          "internalType": "string",
          "name": "_sku",
          "type": "string"
        },
        {
          "internalType": "uint256",
          "name": "_timestamp",
          "type": "uint256"
        },
        {
          "internalType": "address",
          "name": "_consumer",
          "type": "address"
        }
      ],
      "name": "consumePill",
      "outputs": [],
      "stateMutability": "nonpayable",
      "type": "function"
    },
    {
      "inputs": [],
      "name": "contractOwner",
      "outputs": [
        {
          "internalType": "address",
          "name": "",
          "type": "address"
        }
      ],
      "stateMutability": "view",
      "type": "function"
    },
    {
      "inputs": [
        {
          "internalType": "string",
          "name": "_sku",
          "type": "string"
        },
        {
          "internalType": "uint256",
          "name": "currentTimestamp",
          "type": "uint256"
        }
      ],
      "name": "createPills",
      "outputs": [],
      "stateMutability": "nonpayable",
      "type": "function"
    },
    {
      "inputs": [
        {
          "internalType": "uint256",
          "name": "_productionSequence",
          "type": "uint256"
        },
        {
          "internalType": "string",
          "name": "_sku",
          "type": "string"
        },
        {
          "internalType": "uint256",
          "name": "_timestamp",
          "type": "uint256"
        }
      ],
      "name": "getSecret",
      "outputs": [
        {
          "internalType": "bytes32",
          "name": "",
          "type": "bytes32"
        }
      ],
      "stateMutability": "pure",
      "type": "function"
    },
    {
      "inputs": [],
      "name": "owner",
      "outputs": [
        {
          "internalType": "address payable",
          "name": "",
          "type": "address"
        }
      ],
      "stateMutability": "view",
      "type": "function"
    },
    {
      "inputs": [],
      "name": "productionSequence",
      "outputs": [
        {
          "internalType": "uint256",
          "name": "",
          "type": "uint256"
        }
      ],
      "stateMutability": "view",
      "type": "function"
    },
    {
      "inputs": [
        {
          "internalType": "uint256",
          "name": "_productionSequence",
          "type": "uint256"
        },
        {
          "internalType": "string",
          "name": "_sku",
          "type": "string"
        },
        {
          "internalType": "uint256",
          "name": "_timestamp",
          "type": "uint256"
        }
      ],
      "name": "setPillInTransit",
      "outputs": [],
      "stateMutability": "nonpayable",
      "type": "function"
    },
    {
      "inputs": [
        {
          "internalType": "uint256",
          "name": "_productionSequence",
          "type": "uint256"
        },
        {
          "internalType": "string",
          "name": "_sku",
          "type": "string"
        },
        {
          "internalType": "uint256",
          "name": "_timestamp",
          "type": "uint256"
        }
      ],
      "name": "viewPillInfo",
      "outputs": [
        {
          "internalType": "uint256",
          "name": "",
          "type": "uint256"
        },
        {
          "internalType": "uint8",
          "name": "",
          "type": "uint8"
        },
        {
          "internalType": "address",
          "name": "",
          "type": "address"
        },
        {
          "internalType": "string",
          "name": "",
          "type": "string"
        },
        {
          "internalType": "uint256",
          "name": "",
          "type": "uint256"
        }
      ],
      "stateMutability": "view",
      "type": "function"
    }
  ],
  "bytecode": "0x60806040523480156200001157600080fd5b5060405162001a8338038062001a8383398181016040528101906200003791906200022b565b336000806101000a81548173ffffffffffffffffffffffffffffffffffffffff021916908373ffffffffffffffffffffffffffffffffffffffff1602179055508060019081620000889190620004c7565b50600160028190555050620005ae565b6000604051905090565b600080fd5b600080fd5b600080fd5b600080fd5b6000601f19601f8301169050919050565b7f4e487b7100000000000000000000000000000000000000000000000000000000600052604160045260246000fd5b6200010182620000b6565b810181811067ffffffffffffffff82111715620001235762000122620000c7565b5b80604052505050565b60006200013862000098565b9050620001468282620000f6565b919050565b600067ffffffffffffffff821115620001695762000168620000c7565b5b6200017482620000b6565b9050602081019050919050565b60005b83811015620001a157808201518184015260208101905062000184565b60008484015250505050565b6000620001c4620001be846200014b565b6200012c565b905082815260208101848484011115620001e357620001e2620000b1565b5b620001f084828562000181565b509392505050565b600082601f83011262000210576200020f620000ac565b5b815162000222848260208601620001ad565b91505092915050565b600060208284031215620002445762000243620000a2565b5b600082015167ffffffffffffffff811115620002655762000264620000a7565b5b6200027384828501620001f8565b91505092915050565b600081519050919050565b7f4e487b7100000000000000000000000000000000000000000000000000000000600052602260045260246000fd5b60006002820490506001821680620002cf57607f821691505b602082108103620002e557620002e462000287565b5b50919050565b60008190508160005260206000209050919050565b60006020601f8301049050919050565b600082821b905092915050565b6000600883026200034f7fffffffffffffffffffffffffffffffffffffffffffffffffffffffffffffffff8262000310565b6200035b868362000310565b95508019841693508086168417925050509392505050565b6000819050919050565b6000819050919050565b6000620003a8620003a26200039c8462000373565b6200037d565b62000373565b9050919050565b6000819050919050565b620003c48362000387565b620003dc620003d382620003af565b8484546200031d565b825550505050565b600090565b620003f3620003e4565b62000400818484620003b9565b505050565b5b8181101562000428576200041c600082620003e9565b60018101905062000406565b5050565b601f82111562000477576200044181620002eb565b6200044c8462000300565b810160208510156200045c578190505b620004746200046b8562000300565b83018262000405565b50505b505050565b600082821c905092915050565b60006200049c600019846008026200047c565b1980831691505092915050565b6000620004b7838362000489565b9150826002028217905092915050565b620004d2826200027c565b67ffffffffffffffff811115620004ee57620004ed620000c7565b5b620004fa8254620002b6565b620005078282856200042c565b600060209050601f8311600181146200053f57600084156200052a578287015190505b620005368582620004a9565b865550620005a6565b601f1984166200054f86620002eb565b60005b82811015620005795784890151825560018201915060208501945060208101905062000552565b8683101562000599578489015162000595601f89168262000489565b8355505b6001600288020188555050505b505050505050565b6114c580620005be6000396000f3fe608060405234801561001057600080fd5b506004361061009e5760003560e01c806378226fc81161006657806378226fc8146101475780637d0034361461017b5780638da5cb5b146101af578063c7dcaf73146101cd578063ce606ee0146101e95761009e565b8063045a3672146100a357806355d0b391146100c15780636904c94d146100dd57806371b510ab146100fb57806376813f261461012b575b600080fd5b6100ab610207565b6040516100b891906109e6565b60405180910390f35b6100db60048036038101906100d69190610b87565b61020d565b005b6100e5610418565b6040516100f29190610c62565b60405180910390f35b61011560048036038101906101109190610c84565b6104a6565b6040516101229190610d0c565b60405180910390f35b61014560048036038101906101409190610d85565b6104dc565b005b610161600480360381019061015c9190610c84565b610600565b604051610172959493929190610e33565b60405180910390f35b61019560048036038101906101909190610eb9565b6107a2565b6040516101a6959493929190610e33565b60405180910390f35b6101b761088d565b6040516101c49190610f07565b60405180910390f35b6101e760048036038101906101e29190610c84565b6108b1565b005b6101f16109a4565b6040516101fe9190610f22565b60405180910390f35b60025481565b3373ffffffffffffffffffffffffffffffffffffffff1660008054906101000a900473ffffffffffffffffffffffffffffffffffffffff1673ffffffffffffffffffffffffffffffffffffffff161461029b576040517f08c379a000000000000000000000000000000000000000000000000000000000815260040161029290610f89565b60405180910390fd5b600060025483836040516020016102b493929190611006565b604051602081830303815290604052805190602001209050600060025490506000806040518060a001604052808481526020018360ff1681526020018273ffffffffffffffffffffffffffffffffffffffff16815260200187815260200186815250600360008681526020019081526020016000206000820151816000015560208201518160010160006101000a81548160ff021916908360ff16021790555060408201518160010160016101000a81548173ffffffffffffffffffffffffffffffffffffffff021916908373ffffffffffffffffffffffffffffffffffffffff16021790555060608201518160020190816103b0919061124b565b5060808201518160030155905050600260008154809291906103d19061134c565b9190505550827f79224e3b48e9812136769973b984a64a7976d66b825066d8bdcc52396efeba2487866040516104089291906113e0565b60405180910390a2505050505050565b600180546104259061106e565b80601f01602080910402602001604051908101604052809291908181526020018280546104519061106e565b801561049e5780601f106104735761010080835404028352916020019161049e565b820191906000526020600020905b81548152906001019060200180831161048157829003601f168201915b505050505081565b60008383836040516020016104bd93929190611006565b6040516020818303038152906040528051906020012090509392505050565b60008484846040516020016104f393929190611006565b60405160208183030381529060405280519060200120905060006003600083815260200190815260200160002060010160009054906101000a900460ff1660ff1614610574576040517f08c379a000000000000000000000000000000000000000000000000000000000815260040161056b9061146f565b60405180910390fd5b60016003600083815260200190815260200160002060010160006101000a81548160ff021916908360ff160217905550816003600083815260200190815260200160002060010160016101000a81548173ffffffffffffffffffffffffffffffffffffffff021916908373ffffffffffffffffffffffffffffffffffffffff1602179055505050505050565b6000806000606060008088888860405160200161061f93929190611006565b6040516020818303038152906040528051906020012090506000600360008381526020019081526020016000206040518060a0016040529081600082015481526020016001820160009054906101000a900460ff1660ff1660ff1681526020016001820160019054906101000a900473ffffffffffffffffffffffffffffffffffffffff1673ffffffffffffffffffffffffffffffffffffffff1673ffffffffffffffffffffffffffffffffffffffff1681526020016002820180546106e49061106e565b80601f01602080910402602001604051908101604052809291908181526020018280546107109061106e565b801561075d5780601f106107325761010080835404028352916020019161075d565b820191906000526020600020905b81548152906001019060200180831161074057829003601f168201915b50505050508152602001600382015481525050905080600001518160200151826040015183606001518460800151965096509650965096505050939792965093509350565b60036020528060005260406000206000915090508060000154908060010160009054906101000a900460ff16908060010160019054906101000a900473ffffffffffffffffffffffffffffffffffffffff16908060020180546108049061106e565b80601f01602080910402602001604051908101604052809291908181526020018280546108309061106e565b801561087d5780601f106108525761010080835404028352916020019161087d565b820191906000526020600020905b81548152906001019060200180831161086057829003601f168201915b5050505050908060030154905085565b60008054906101000a900473ffffffffffffffffffffffffffffffffffffffff1681565b3373ffffffffffffffffffffffffffffffffffffffff1660008054906101000a900473ffffffffffffffffffffffffffffffffffffffff1673ffffffffffffffffffffffffffffffffffffffff161461093f576040517f08c379a000000000000000000000000000000000000000000000000000000000815260040161093690610f89565b60405180910390fd5b600083838360405160200161095693929190611006565b60405160208183030381529060405280519060200120905060026003600083815260200190815260200160002060010160006101000a81548160ff021916908360ff16021790555050505050565b60008060009054906101000a900473ffffffffffffffffffffffffffffffffffffffff16905090565b6000819050919050565b6109e0816109cd565b82525050565b60006020820190506109fb60008301846109d7565b92915050565b6000604051905090565b600080fd5b600080fd5b600080fd5b600080fd5b6000601f19601f8301169050919050565b7f4e487b7100000000000000000000000000000000000000000000000000000000600052604160045260246000fd5b610a6882610a1f565b810181811067ffffffffffffffff82111715610a8757610a86610a30565b5b80604052505050565b6000610a9a610a01565b9050610aa68282610a5f565b919050565b600067ffffffffffffffff821115610ac657610ac5610a30565b5b610acf82610a1f565b9050602081019050919050565b82818337600083830152505050565b6000610afe610af984610aab565b610a90565b905082815260208101848484011115610b1a57610b19610a1a565b5b610b25848285610adc565b509392505050565b600082601f830112610b4257610b41610a15565b5b8135610b52848260208601610aeb565b91505092915050565b610b64816109cd565b8114610b6f57600080fd5b50565b600081359050610b8181610b5b565b92915050565b60008060408385031215610b9e57610b9d610a0b565b5b600083013567ffffffffffffffff811115610bbc57610bbb610a10565b5b610bc885828601610b2d565b9250506020610bd985828601610b72565b9150509250929050565b600081519050919050565b600082825260208201905092915050565b60005b83811015610c1d578082015181840152602081019050610c02565b60008484015250505050565b6000610c3482610be3565b610c3e8185610bee565b9350610c4e818560208601610bff565b610c5781610a1f565b840191505092915050565b60006020820190508181036000830152610c7c8184610c29565b905092915050565b600080600060608486031215610c9d57610c9c610a0b565b5b6000610cab86828701610b72565b935050602084013567ffffffffffffffff811115610ccc57610ccb610a10565b5b610cd886828701610b2d565b9250506040610ce986828701610b72565b9150509250925092565b6000819050919050565b610d0681610cf3565b82525050565b6000602082019050610d216000830184610cfd565b92915050565b600073ffffffffffffffffffffffffffffffffffffffff82169050919050565b6000610d5282610d27565b9050919050565b610d6281610d47565b8114610d6d57600080fd5b50565b600081359050610d7f81610d59565b92915050565b60008060008060808587031215610d9f57610d9e610a0b565b5b6000610dad87828801610b72565b945050602085013567ffffffffffffffff811115610dce57610dcd610a10565b5b610dda87828801610b2d565b9350506040610deb87828801610b72565b9250506060610dfc87828801610d70565b91505092959194509250565b600060ff82169050919050565b610e1e81610e08565b82525050565b610e2d81610d47565b82525050565b600060a082019050610e4860008301886109d7565b610e556020830187610e15565b610e626040830186610e24565b8181036060830152610e748185610c29565b9050610e8360808301846109d7565b9695505050505050565b610e9681610cf3565b8114610ea157600080fd5b50565b600081359050610eb381610e8d565b92915050565b600060208284031215610ecf57610ece610a0b565b5b6000610edd84828501610ea4565b91505092915050565b6000610ef182610d27565b9050919050565b610f0181610ee6565b82525050565b6000602082019050610f1c6000830184610ef8565b92915050565b6000602082019050610f376000830184610e24565b92915050565b7f4f6e6c79204d616e7566616374757265722063616e2061636365737321212100600082015250565b6000610f73601f83610bee565b9150610f7e82610f3d565b602082019050919050565b60006020820190508181036000830152610fa281610f66565b9050919050565b6000819050919050565b610fc4610fbf826109cd565b610fa9565b82525050565b600081905092915050565b6000610fe082610be3565b610fea8185610fca565b9350610ffa818560208601610bff565b80840191505092915050565b60006110128286610fb3565b6020820191506110228285610fd5565b915061102e8284610fb3565b602082019150819050949350505050565b7f4e487b7100000000000000000000000000000000000000000000000000000000600052602260045260246000fd5b6000600282049050600182168061108657607f821691505b6020821081036110995761109861103f565b5b50919050565b60008190508160005260206000209050919050565b60006020601f8301049050919050565b600082821b905092915050565b6000600883026111017fffffffffffffffffffffffffffffffffffffffffffffffffffffffffffffffff826110c4565b61110b86836110c4565b95508019841693508086168417925050509392505050565b6000819050919050565b600061114861114361113e846109cd565b611123565b6109cd565b9050919050565b6000819050919050565b6111628361112d565b61117661116e8261114f565b8484546110d1565b825550505050565b600090565b61118b61117e565b611196818484611159565b505050565b5b818110156111ba576111af600082611183565b60018101905061119c565b5050565b601f8211156111ff576111d08161109f565b6111d9846110b4565b810160208510156111e8578190505b6111fc6111f4856110b4565b83018261119b565b50505b505050565b600082821c905092915050565b600061122260001984600802611204565b1980831691505092915050565b600061123b8383611211565b9150826002028217905092915050565b61125482610be3565b67ffffffffffffffff81111561126d5761126c610a30565b5b611277825461106e565b6112828282856111be565b600060209050601f8311600181146112b557600084156112a3578287015190505b6112ad858261122f565b865550611315565b601f1984166112c38661109f565b60005b828110156112eb578489015182556001820191506020850194506020810190506112c6565b868310156113085784890151611304601f891682611211565b8355505b6001600288020188555050505b505050505050565b7f4e487b7100000000000000000000000000000000000000000000000000000000600052601160045260246000fd5b6000611357826109cd565b91507fffffffffffffffffffffffffffffffffffffffffffffffffffffffffffffffff82036113895761138861131d565b5b600182019050919050565b7f50696c6c20637265617465642c206e756d6265723a0000000000000000000000600082015250565b60006113ca601583610bee565b91506113d582611394565b602082019050919050565b600060608201905081810360008301526113f9816113bd565b9050818103602083015261140d8185610c29565b905061141c6040830184610cfd565b9392505050565b7f50696c6c206973206e6f7420636f6e73756d6564210000000000000000000000600082015250565b6000611459601583610bee565b915061146482611423565b602082019050919050565b600060208201905081810360008301526114888161144c565b905091905056fea2646970667358221220e423a166c1eb13f25b7520f71df7215c6afa73c71bf2abdf08bc0255a0e7faad64736f6c63430008180033",
  "linkReferences": {},
  "deployedLinkReferences": {}
}