{
  "_format": "hh-sol-artifact-1",
  "contractName": "Manufacturer",
  "sourceName": "contracts/Manufacturer.sol",
  "abi": [
    {
      "inputs": [
        {
          "internalType": "string",
          "name": "_company",
          "type": "string"
        }
      ],
      "stateMutability": "nonpayable",
      "type": "constructor"
    },
    {
      "anonymous": false,
      "inputs": [
        {
          "indexed": false,
          "internalType": "string",
          "name": "message",
          "type": "string"
        },
        {
          "indexed": false,
          "internalType": "string",
          "name": "SKU",
          "type": "string"
        },
        {
          "indexed": false,
          "internalType": "bytes32",
          "name": "secret",
          "type": "bytes32"
        }
      ],
      "name": "PillCreated",
      "type": "event"
    },
    {
      "inputs": [
        {
          "internalType": "bytes32",
          "name": "",
          "type": "bytes32"
        }
      ],
      "name": "Pillbook",
      "outputs": [
        {
          "internalType": "bytes32",
          "name": "secret",
          "type": "bytes32"
        },
        {
          "internalType": "uint8",
          "name": "status",
          "type": "uint8"
        },
        {
          "internalType": "address",
          "name": "consumedBy",
          "type": "address"
        },
        {
          "internalType": "uint256",
          "name": "productionDate",
          "type": "uint256"
        },
        {
          "internalType": "address",
          "name": "manufacturer",
          "type": "address"
        }
      ],
      "stateMutability": "view",
      "type": "function"
    },
    {
      "inputs": [],
      "name": "company",
      "outputs": [
        {
          "internalType": "string",
          "name": "",
          "type": "string"
        }
      ],
      "stateMutability": "view",
      "type": "function"
    },
    {
      "inputs": [
        {
          "internalType": "string",
          "name": "_sku",
          "type": "string"
        },
        {
          "internalType": "uint256",
          "name": "_timestamp",
          "type": "uint256"
        },
        {
          "internalType": "address",
          "name": "_consumer",
          "type": "address"
        }
      ],
      "name": "consumePill",
      "outputs": [],
      "stateMutability": "nonpayable",
      "type": "function"
    },
    {
      "inputs": [],
      "name": "contractOwner",
      "outputs": [
        {
          "internalType": "address",
          "name": "",
          "type": "address"
        }
      ],
      "stateMutability": "view",
      "type": "function"
    },
    {
      "inputs": [
        {
          "internalType": "string",
          "name": "_sku",
          "type": "string"
        },
        {
          "internalType": "uint256",
          "name": "_timestamp",
          "type": "uint256"
        }
      ],
      "name": "createPills",
      "outputs": [],
      "stateMutability": "nonpayable",
      "type": "function"
    },
    {
      "inputs": [
        {
          "internalType": "string",
          "name": "_sku",
          "type": "string"
        },
        {
          "internalType": "uint256",
          "name": "_timestamp",
          "type": "uint256"
        }
      ],
      "name": "getSecret",
      "outputs": [
        {
          "internalType": "bytes32",
          "name": "",
          "type": "bytes32"
        }
      ],
      "stateMutability": "pure",
      "type": "function"
    },
    {
      "inputs": [],
      "name": "owner",
      "outputs": [
        {
          "internalType": "address payable",
          "name": "",
          "type": "address"
        }
      ],
      "stateMutability": "view",
      "type": "function"
    },
    {
      "inputs": [
        {
          "internalType": "string",
          "name": "_sku",
          "type": "string"
        },
        {
          "internalType": "uint256",
          "name": "_timestamp",
          "type": "uint256"
        }
      ],
      "name": "setPillInTransit",
      "outputs": [],
      "stateMutability": "nonpayable",
      "type": "function"
    },
    {
      "inputs": [
        {
          "internalType": "bytes32",
          "name": "_secret",
          "type": "bytes32"
        }
      ],
      "name": "viewPillInfo",
      "outputs": [
        {
          "internalType": "bytes32",
          "name": "",
          "type": "bytes32"
        },
        {
          "internalType": "uint8",
          "name": "",
          "type": "uint8"
        },
        {
          "internalType": "address",
          "name": "",
          "type": "address"
        },
        {
          "internalType": "uint256",
          "name": "",
          "type": "uint256"
        },
        {
          "internalType": "address",
          "name": "",
          "type": "address"
        }
      ],
      "stateMutability": "view",
      "type": "function"
    }
  ],
  "bytecode": "0x60806040523480156200001157600080fd5b506040516200169438038062001694833981810160405281019062000037919062000223565b336000806101000a81548173ffffffffffffffffffffffffffffffffffffffff021916908373ffffffffffffffffffffffffffffffffffffffff1602179055508060019081620000889190620004bf565b5050620005a6565b6000604051905090565b600080fd5b600080fd5b600080fd5b600080fd5b6000601f19601f8301169050919050565b7f4e487b7100000000000000000000000000000000000000000000000000000000600052604160045260246000fd5b620000f982620000ae565b810181811067ffffffffffffffff821117156200011b576200011a620000bf565b5b80604052505050565b60006200013062000090565b90506200013e8282620000ee565b919050565b600067ffffffffffffffff821115620001615762000160620000bf565b5b6200016c82620000ae565b9050602081019050919050565b60005b83811015620001995780820151818401526020810190506200017c565b60008484015250505050565b6000620001bc620001b68462000143565b62000124565b905082815260208101848484011115620001db57620001da620000a9565b5b620001e884828562000179565b509392505050565b600082601f830112620002085762000207620000a4565b5b81516200021a848260208601620001a5565b91505092915050565b6000602082840312156200023c576200023b6200009a565b5b600082015167ffffffffffffffff8111156200025d576200025c6200009f565b5b6200026b84828501620001f0565b91505092915050565b600081519050919050565b7f4e487b7100000000000000000000000000000000000000000000000000000000600052602260045260246000fd5b60006002820490506001821680620002c757607f821691505b602082108103620002dd57620002dc6200027f565b5b50919050565b60008190508160005260206000209050919050565b60006020601f8301049050919050565b600082821b905092915050565b600060088302620003477fffffffffffffffffffffffffffffffffffffffffffffffffffffffffffffffff8262000308565b62000353868362000308565b95508019841693508086168417925050509392505050565b6000819050919050565b6000819050919050565b6000620003a06200039a62000394846200036b565b62000375565b6200036b565b9050919050565b6000819050919050565b620003bc836200037f565b620003d4620003cb82620003a7565b84845462000315565b825550505050565b600090565b620003eb620003dc565b620003f8818484620003b1565b505050565b5b81811015620004205762000414600082620003e1565b600181019050620003fe565b5050565b601f8211156200046f576200043981620002e3565b6200044484620002f8565b8101602085101562000454578190505b6200046c6200046385620002f8565b830182620003fd565b50505b505050565b600082821c905092915050565b6000620004946000198460080262000474565b1980831691505092915050565b6000620004af838362000481565b9150826002028217905092915050565b620004ca8262000274565b67ffffffffffffffff811115620004e657620004e5620000bf565b5b620004f28254620002ae565b620004ff82828562000424565b600060209050601f83116001811462000537576000841562000522578287015190505b6200052e8582620004a1565b8655506200059e565b601f1984166200054786620002e3565b60005b8281101562000571578489015182556001820191506020850194506020810190506200054a565b868310156200059157848901516200058d601f89168262000481565b8355505b6001600288020188555050505b505050505050565b6110de80620005b66000396000f3fe608060405234801561001057600080fd5b50600436106100935760003560e01c80637d003436116100665780637d0034361461011e5780638da5cb5b146101525780638e10ea6c14610170578063c76b8b311461018c578063ce606ee0146101c057610093565b80631f116b921461009857806334dd5571146100b457806355d0b391146100e45780636904c94d14610100575b600080fd5b6100b260048036038101906100ad9190610b13565b6101de565b005b6100ce60048036038101906100c99190610b82565b6102ff565b6040516100db9190610bf7565b60405180910390f35b6100fe60048036038101906100f99190610b82565b610332565b005b61010861055c565b6040516101159190610c91565b60405180910390f35b61013860048036038101906101339190610cdf565b6105ea565b604051610149959493929190610d46565b60405180910390f35b61015a61066d565b6040516101679190610dba565b60405180910390f35b61018a60048036038101906101859190610b82565b610691565b005b6101a660048036038101906101a19190610cdf565b610780565b6040516101b7959493929190610d46565b60405180910390f35b6101c86108fc565b6040516101d59190610dd5565b60405180910390f35b600083836040516020016101f3929190610e4d565b60405160208183030381529060405280519060200120905060006002600083815260200190815260200160002060010160009054906101000a900460ff1660ff1614610274576040517f08c379a000000000000000000000000000000000000000000000000000000000815260040161026b90610ec1565b60405180910390fd5b60016002600083815260200190815260200160002060010160006101000a81548160ff021916908360ff160217905550816002600083815260200190815260200160002060010160016101000a81548173ffffffffffffffffffffffffffffffffffffffff021916908373ffffffffffffffffffffffffffffffffffffffff16021790555050505050565b60008282604051602001610314929190610e4d565b60405160208183030381529060405280519060200120905092915050565b3373ffffffffffffffffffffffffffffffffffffffff1660008054906101000a900473ffffffffffffffffffffffffffffffffffffffff1673ffffffffffffffffffffffffffffffffffffffff16146103c0576040517f08c379a00000000000000000000000000000000000000000000000000000000081526004016103b790610f2d565b60405180910390fd5b600082826040516020016103d5929190610e4d565b6040516020818303038152906040528051906020012090506040518060a00160405280828152602001600060ff168152602001600073ffffffffffffffffffffffffffffffffffffffff1681526020018381526020013373ffffffffffffffffffffffffffffffffffffffff16815250600260008381526020019081526020016000206000820151816000015560208201518160010160006101000a81548160ff021916908360ff16021790555060408201518160010160016101000a81548173ffffffffffffffffffffffffffffffffffffffff021916908373ffffffffffffffffffffffffffffffffffffffff1602179055506060820151816002015560808201518160030160006101000a81548173ffffffffffffffffffffffffffffffffffffffff021916908373ffffffffffffffffffffffffffffffffffffffff1602179055509050507f49948368b3c0630d2c30141b5f00a7c3ed913b09aab84bebbe3f8d0a53e92060838260405161054f929190610f99565b60405180910390a1505050565b600180546105699061100b565b80601f01602080910402602001604051908101604052809291908181526020018280546105959061100b565b80156105e25780601f106105b7576101008083540402835291602001916105e2565b820191906000526020600020905b8154815290600101906020018083116105c557829003601f168201915b505050505081565b60026020528060005260406000206000915090508060000154908060010160009054906101000a900460ff16908060010160019054906101000a900473ffffffffffffffffffffffffffffffffffffffff16908060020154908060030160009054906101000a900473ffffffffffffffffffffffffffffffffffffffff16905085565b60008054906101000a900473ffffffffffffffffffffffffffffffffffffffff1681565b3373ffffffffffffffffffffffffffffffffffffffff1660008054906101000a900473ffffffffffffffffffffffffffffffffffffffff1673ffffffffffffffffffffffffffffffffffffffff161461071f576040517f08c379a000000000000000000000000000000000000000000000000000000000815260040161071690610f2d565b60405180910390fd5b60008282604051602001610734929190610e4d565b604051602081830303815290604052805190602001209050600280600083815260200190815260200160002060010160006101000a81548160ff021916908360ff160217905550505050565b600080600080600080600260008881526020019081526020016000206040518060a0016040529081600082015481526020016001820160009054906101000a900460ff1660ff1660ff1681526020016001820160019054906101000a900473ffffffffffffffffffffffffffffffffffffffff1673ffffffffffffffffffffffffffffffffffffffff1673ffffffffffffffffffffffffffffffffffffffff168152602001600282015481526020016003820160009054906101000a900473ffffffffffffffffffffffffffffffffffffffff1673ffffffffffffffffffffffffffffffffffffffff1673ffffffffffffffffffffffffffffffffffffffff168152505090506000801b8160000151036108cf576040517f08c379a00000000000000000000000000000000000000000000000000000000081526004016108c690611088565b60405180910390fd5b80600001518160200151826040015183606001518460800151955095509550955095505091939590929450565b60008060009054906101000a900473ffffffffffffffffffffffffffffffffffffffff16905090565b6000604051905090565b600080fd5b600080fd5b600080fd5b600080fd5b6000601f19601f8301169050919050565b7f4e487b7100000000000000000000000000000000000000000000000000000000600052604160045260246000fd5b61098c82610943565b810181811067ffffffffffffffff821117156109ab576109aa610954565b5b80604052505050565b60006109be610925565b90506109ca8282610983565b919050565b600067ffffffffffffffff8211156109ea576109e9610954565b5b6109f382610943565b9050602081019050919050565b82818337600083830152505050565b6000610a22610a1d846109cf565b6109b4565b905082815260208101848484011115610a3e57610a3d61093e565b5b610a49848285610a00565b509392505050565b600082601f830112610a6657610a65610939565b5b8135610a76848260208601610a0f565b91505092915050565b6000819050919050565b610a9281610a7f565b8114610a9d57600080fd5b50565b600081359050610aaf81610a89565b92915050565b600073ffffffffffffffffffffffffffffffffffffffff82169050919050565b6000610ae082610ab5565b9050919050565b610af081610ad5565b8114610afb57600080fd5b50565b600081359050610b0d81610ae7565b92915050565b600080600060608486031215610b2c57610b2b61092f565b5b600084013567ffffffffffffffff811115610b4a57610b49610934565b5b610b5686828701610a51565b9350506020610b6786828701610aa0565b9250506040610b7886828701610afe565b9150509250925092565b60008060408385031215610b9957610b9861092f565b5b600083013567ffffffffffffffff811115610bb757610bb6610934565b5b610bc385828601610a51565b9250506020610bd485828601610aa0565b9150509250929050565b6000819050919050565b610bf181610bde565b82525050565b6000602082019050610c0c6000830184610be8565b92915050565b600081519050919050565b600082825260208201905092915050565b60005b83811015610c4c578082015181840152602081019050610c31565b60008484015250505050565b6000610c6382610c12565b610c6d8185610c1d565b9350610c7d818560208601610c2e565b610c8681610943565b840191505092915050565b60006020820190508181036000830152610cab8184610c58565b905092915050565b610cbc81610bde565b8114610cc757600080fd5b50565b600081359050610cd981610cb3565b92915050565b600060208284031215610cf557610cf461092f565b5b6000610d0384828501610cca565b91505092915050565b600060ff82169050919050565b610d2281610d0c565b82525050565b610d3181610ad5565b82525050565b610d4081610a7f565b82525050565b600060a082019050610d5b6000830188610be8565b610d686020830187610d19565b610d756040830186610d28565b610d826060830185610d37565b610d8f6080830184610d28565b9695505050505050565b6000610da482610ab5565b9050919050565b610db481610d99565b82525050565b6000602082019050610dcf6000830184610dab565b92915050565b6000602082019050610dea6000830184610d28565b92915050565b600081905092915050565b6000610e0682610c12565b610e108185610df0565b9350610e20818560208601610c2e565b80840191505092915050565b6000819050919050565b610e47610e4282610a7f565b610e2c565b82525050565b6000610e598285610dfb565b9150610e658284610e36565b6020820191508190509392505050565b7f50696c6c20697320636f6e73756d656421000000000000000000000000000000600082015250565b6000610eab601183610c1d565b9150610eb682610e75565b602082019050919050565b60006020820190508181036000830152610eda81610e9e565b9050919050565b7f4f6e6c79204d616e7566616374757265722063616e2061636365737321212100600082015250565b6000610f17601f83610c1d565b9150610f2282610ee1565b602082019050919050565b60006020820190508181036000830152610f4681610f0a565b9050919050565b7f50696c6c20637265617465643a00000000000000000000000000000000000000600082015250565b6000610f83600d83610c1d565b9150610f8e82610f4d565b602082019050919050565b60006060820190508181036000830152610fb281610f76565b90508181036020830152610fc68185610c58565b9050610fd56040830184610be8565b9392505050565b7f4e487b7100000000000000000000000000000000000000000000000000000000600052602260045260246000fd5b6000600282049050600182168061102357607f821691505b60208210810361103657611035610fdc565b5b50919050565b7f50696c6c20646f6573206e6f7420657869737400000000000000000000000000600082015250565b6000611072601383610c1d565b915061107d8261103c565b602082019050919050565b600060208201905081810360008301526110a181611065565b905091905056fea264697066735822122069aa5d25111e9f74b594b1999c5319edff1e28c327af30b006685f0ec152224e64736f6c63430008180033",
  "linkReferences": {},
  "deployedLinkReferences": {}
}