{
  "_format": "hh-sol-artifact-1",
  "contractName": "Manufacturer",
  "sourceName": "contracts/Manufacturer.sol",
  "abi": [
    {
      "inputs": [
        {
          "internalType": "string",
          "name": "_company",
          "type": "string"
        }
      ],
      "stateMutability": "nonpayable",
      "type": "constructor"
    },
    {
      "anonymous": false,
      "inputs": [
        {
          "indexed": false,
          "internalType": "string",
          "name": "message",
          "type": "string"
        },
        {
          "indexed": true,
          "internalType": "uint256",
          "name": "prod_num",
          "type": "uint256"
        },
        {
          "indexed": false,
          "internalType": "string",
          "name": "SKU",
          "type": "string"
        },
        {
          "indexed": false,
          "internalType": "bytes32",
          "name": "secret",
          "type": "bytes32"
        }
      ],
      "name": "PillCreated",
      "type": "event"
    },
    {
      "inputs": [
        {
          "internalType": "bytes32",
          "name": "",
          "type": "bytes32"
        }
      ],
      "name": "Pillbook",
      "outputs": [
        {
          "internalType": "bytes32",
          "name": "secret",
          "type": "bytes32"
        },
        {
          "internalType": "uint8",
          "name": "status",
          "type": "uint8"
        },
        {
          "internalType": "address",
          "name": "consumedBy",
          "type": "address"
        },
        {
          "internalType": "uint256",
          "name": "productionDate",
          "type": "uint256"
        },
        {
          "internalType": "address",
          "name": "manufacturer",
          "type": "address"
        }
      ],
      "stateMutability": "view",
      "type": "function"
    },
    {
      "inputs": [],
      "name": "company",
      "outputs": [
        {
          "internalType": "string",
          "name": "",
          "type": "string"
        }
      ],
      "stateMutability": "view",
      "type": "function"
    },
    {
      "inputs": [
        {
          "internalType": "uint256",
          "name": "_productionSequence",
          "type": "uint256"
        },
        {
          "internalType": "string",
          "name": "_sku",
          "type": "string"
        },
        {
          "internalType": "uint256",
          "name": "_timestamp",
          "type": "uint256"
        },
        {
          "internalType": "address",
          "name": "_consumer",
          "type": "address"
        }
      ],
      "name": "consumePill",
      "outputs": [],
      "stateMutability": "nonpayable",
      "type": "function"
    },
    {
      "inputs": [],
      "name": "contractOwner",
      "outputs": [
        {
          "internalType": "address",
          "name": "",
          "type": "address"
        }
      ],
      "stateMutability": "view",
      "type": "function"
    },
    {
      "inputs": [
        {
          "internalType": "uint256",
          "name": "_productionSequence",
          "type": "uint256"
        },
        {
          "internalType": "string",
          "name": "_sku",
          "type": "string"
        },
        {
          "internalType": "uint256",
          "name": "_timestamp",
          "type": "uint256"
        }
      ],
      "name": "createPills",
      "outputs": [],
      "stateMutability": "nonpayable",
      "type": "function"
    },
    {
      "inputs": [
        {
          "internalType": "uint256",
          "name": "_productionSequence",
          "type": "uint256"
        },
        {
          "internalType": "string",
          "name": "_sku",
          "type": "string"
        },
        {
          "internalType": "uint256",
          "name": "_timestamp",
          "type": "uint256"
        }
      ],
      "name": "getSecret",
      "outputs": [
        {
          "internalType": "bytes32",
          "name": "",
          "type": "bytes32"
        }
      ],
      "stateMutability": "pure",
      "type": "function"
    },
    {
      "inputs": [],
      "name": "owner",
      "outputs": [
        {
          "internalType": "address payable",
          "name": "",
          "type": "address"
        }
      ],
      "stateMutability": "view",
      "type": "function"
    },
    {
      "inputs": [],
      "name": "productionSequence",
      "outputs": [
        {
          "internalType": "uint256",
          "name": "",
          "type": "uint256"
        }
      ],
      "stateMutability": "view",
      "type": "function"
    },
    {
      "inputs": [
        {
          "internalType": "uint256",
          "name": "_productionSequence",
          "type": "uint256"
        },
        {
          "internalType": "string",
          "name": "_sku",
          "type": "string"
        },
        {
          "internalType": "uint256",
          "name": "_timestamp",
          "type": "uint256"
        }
      ],
      "name": "setPillInTransit",
      "outputs": [],
      "stateMutability": "nonpayable",
      "type": "function"
    },
    {
      "inputs": [
        {
          "internalType": "bytes32",
          "name": "_secret",
          "type": "bytes32"
        }
      ],
      "name": "viewPillInfo",
      "outputs": [
        {
          "internalType": "bytes32",
          "name": "",
          "type": "bytes32"
        },
        {
          "internalType": "uint8",
          "name": "",
          "type": "uint8"
        },
        {
          "internalType": "address",
          "name": "",
          "type": "address"
        },
        {
          "internalType": "uint256",
          "name": "",
          "type": "uint256"
        },
        {
          "internalType": "address",
          "name": "",
          "type": "address"
        }
      ],
      "stateMutability": "view",
      "type": "function"
    }
  ],
  "bytecode": "0x60806040523480156200001157600080fd5b50604051620017bb380380620017bb83398181016040528101906200003791906200022b565b336000806101000a81548173ffffffffffffffffffffffffffffffffffffffff021916908373ffffffffffffffffffffffffffffffffffffffff1602179055508060019081620000889190620004c7565b50600160028190555050620005ae565b6000604051905090565b600080fd5b600080fd5b600080fd5b600080fd5b6000601f19601f8301169050919050565b7f4e487b7100000000000000000000000000000000000000000000000000000000600052604160045260246000fd5b6200010182620000b6565b810181811067ffffffffffffffff82111715620001235762000122620000c7565b5b80604052505050565b60006200013862000098565b9050620001468282620000f6565b919050565b600067ffffffffffffffff821115620001695762000168620000c7565b5b6200017482620000b6565b9050602081019050919050565b60005b83811015620001a157808201518184015260208101905062000184565b60008484015250505050565b6000620001c4620001be846200014b565b6200012c565b905082815260208101848484011115620001e357620001e2620000b1565b5b620001f084828562000181565b509392505050565b600082601f83011262000210576200020f620000ac565b5b815162000222848260208601620001ad565b91505092915050565b600060208284031215620002445762000243620000a2565b5b600082015167ffffffffffffffff811115620002655762000264620000a7565b5b6200027384828501620001f8565b91505092915050565b600081519050919050565b7f4e487b7100000000000000000000000000000000000000000000000000000000600052602260045260246000fd5b60006002820490506001821680620002cf57607f821691505b602082108103620002e557620002e462000287565b5b50919050565b60008190508160005260206000209050919050565b60006020601f8301049050919050565b600082821b905092915050565b6000600883026200034f7fffffffffffffffffffffffffffffffffffffffffffffffffffffffffffffffff8262000310565b6200035b868362000310565b95508019841693508086168417925050509392505050565b6000819050919050565b6000819050919050565b6000620003a8620003a26200039c8462000373565b6200037d565b62000373565b9050919050565b6000819050919050565b620003c48362000387565b620003dc620003d382620003af565b8484546200031d565b825550505050565b600090565b620003f3620003e4565b62000400818484620003b9565b505050565b5b8181101562000428576200041c600082620003e9565b60018101905062000406565b5050565b601f82111562000477576200044181620002eb565b6200044c8462000300565b810160208510156200045c578190505b620004746200046b8562000300565b83018262000405565b50505b505050565b600082821c905092915050565b60006200049c600019846008026200047c565b1980831691505092915050565b6000620004b7838362000489565b9150826002028217905092915050565b620004d2826200027c565b67ffffffffffffffff811115620004ee57620004ed620000c7565b5b620004fa8254620002b6565b620005078282856200042c565b600060209050601f8311600181146200053f57600084156200052a578287015190505b620005368582620004a9565b865550620005a6565b601f1984166200054f86620002eb565b60005b82811015620005795784890151825560018201915060208501945060208101905062000552565b8683101562000599578489015162000595601f89168262000489565b8355505b6001600288020188555050505b505050505050565b6111fd80620005be6000396000f3fe608060405234801561001057600080fd5b506004361061009e5760003560e01c80637d003436116100665780637d003436146101475780638da5cb5b1461017b578063c76b8b3114610199578063c7dcaf73146101cd578063ce606ee0146101e95761009e565b8063045a3672146100a35780636904c94d146100c157806371b510ab146100df57806376813f261461010f5780637b58b4901461012b575b600080fd5b6100ab610207565b6040516100b89190610993565b60405180910390f35b6100c961020d565b6040516100d69190610a3e565b60405180910390f35b6100f960048036038101906100f49190610bd5565b61029b565b6040516101069190610c5d565b60405180910390f35b61012960048036038101906101249190610cd6565b6102d1565b005b61014560048036038101906101409190610bd5565b6103f5565b005b610161600480360381019061015c9190610d85565b61063b565b604051610172959493929190610ddd565b60405180910390f35b6101836106be565b6040516101909190610e51565b60405180910390f35b6101b360048036038101906101ae9190610d85565b6106e2565b6040516101c4959493929190610ddd565b60405180910390f35b6101e760048036038101906101e29190610bd5565b61085e565b005b6101f1610951565b6040516101fe9190610e6c565b60405180910390f35b60025481565b6001805461021a90610eb6565b80601f016020809104026020016040519081016040528092919081815260200182805461024690610eb6565b80156102935780601f1061026857610100808354040283529160200191610293565b820191906000526020600020905b81548152906001019060200180831161027657829003601f168201915b505050505081565b60008383836040516020016102b293929190610f44565b6040516020818303038152906040528051906020012090509392505050565b60008484846040516020016102e893929190610f44565b60405160208183030381529060405280519060200120905060006003600083815260200190815260200160002060010160009054906101000a900460ff1660ff1614610369576040517f08c379a000000000000000000000000000000000000000000000000000000000815260040161036090610fc9565b60405180910390fd5b60016003600083815260200190815260200160002060010160006101000a81548160ff021916908360ff160217905550816003600083815260200190815260200160002060010160016101000a81548173ffffffffffffffffffffffffffffffffffffffff021916908373ffffffffffffffffffffffffffffffffffffffff1602179055505050505050565b3373ffffffffffffffffffffffffffffffffffffffff1660008054906101000a900473ffffffffffffffffffffffffffffffffffffffff1673ffffffffffffffffffffffffffffffffffffffff1614610483576040517f08c379a000000000000000000000000000000000000000000000000000000000815260040161047a90611035565b60405180910390fd5b600083838360405160200161049a93929190610f44565b6040516020818303038152906040528051906020012090506040518060a00160405280828152602001600060ff168152602001600073ffffffffffffffffffffffffffffffffffffffff1681526020018381526020013373ffffffffffffffffffffffffffffffffffffffff16815250600360008381526020019081526020016000206000820151816000015560208201518160010160006101000a81548160ff021916908360ff16021790555060408201518160010160016101000a81548173ffffffffffffffffffffffffffffffffffffffff021916908373ffffffffffffffffffffffffffffffffffffffff1602179055506060820151816002015560808201518160030160006101000a81548173ffffffffffffffffffffffffffffffffffffffff021916908373ffffffffffffffffffffffffffffffffffffffff160217905550905050600260008154809291906105f690611084565b9190505550837f79224e3b48e9812136769973b984a64a7976d66b825066d8bdcc52396efeba24848360405161062d929190611118565b60405180910390a250505050565b60036020528060005260406000206000915090508060000154908060010160009054906101000a900460ff16908060010160019054906101000a900473ffffffffffffffffffffffffffffffffffffffff16908060020154908060030160009054906101000a900473ffffffffffffffffffffffffffffffffffffffff16905085565b60008054906101000a900473ffffffffffffffffffffffffffffffffffffffff1681565b600080600080600080600360008881526020019081526020016000206040518060a0016040529081600082015481526020016001820160009054906101000a900460ff1660ff1660ff1681526020016001820160019054906101000a900473ffffffffffffffffffffffffffffffffffffffff1673ffffffffffffffffffffffffffffffffffffffff1673ffffffffffffffffffffffffffffffffffffffff168152602001600282015481526020016003820160009054906101000a900473ffffffffffffffffffffffffffffffffffffffff1673ffffffffffffffffffffffffffffffffffffffff1673ffffffffffffffffffffffffffffffffffffffff168152505090506000801b816000015103610831576040517f08c379a0000000000000000000000000000000000000000000000000000000008152600401610828906111a7565b60405180910390fd5b80600001518160200151826040015183606001518460800151955095509550955095505091939590929450565b3373ffffffffffffffffffffffffffffffffffffffff1660008054906101000a900473ffffffffffffffffffffffffffffffffffffffff1673ffffffffffffffffffffffffffffffffffffffff16146108ec576040517f08c379a00000000000000000000000000000000000000000000000000000000081526004016108e390611035565b60405180910390fd5b600083838360405160200161090393929190610f44565b60405160208183030381529060405280519060200120905060026003600083815260200190815260200160002060010160006101000a81548160ff021916908360ff16021790555050505050565b60008060009054906101000a900473ffffffffffffffffffffffffffffffffffffffff16905090565b6000819050919050565b61098d8161097a565b82525050565b60006020820190506109a86000830184610984565b92915050565b600081519050919050565b600082825260208201905092915050565b60005b838110156109e85780820151818401526020810190506109cd565b60008484015250505050565b6000601f19601f8301169050919050565b6000610a10826109ae565b610a1a81856109b9565b9350610a2a8185602086016109ca565b610a33816109f4565b840191505092915050565b60006020820190508181036000830152610a588184610a05565b905092915050565b6000604051905090565b600080fd5b600080fd5b610a7d8161097a565b8114610a8857600080fd5b50565b600081359050610a9a81610a74565b92915050565b600080fd5b600080fd5b7f4e487b7100000000000000000000000000000000000000000000000000000000600052604160045260246000fd5b610ae2826109f4565b810181811067ffffffffffffffff82111715610b0157610b00610aaa565b5b80604052505050565b6000610b14610a60565b9050610b208282610ad9565b919050565b600067ffffffffffffffff821115610b4057610b3f610aaa565b5b610b49826109f4565b9050602081019050919050565b82818337600083830152505050565b6000610b78610b7384610b25565b610b0a565b905082815260208101848484011115610b9457610b93610aa5565b5b610b9f848285610b56565b509392505050565b600082601f830112610bbc57610bbb610aa0565b5b8135610bcc848260208601610b65565b91505092915050565b600080600060608486031215610bee57610bed610a6a565b5b6000610bfc86828701610a8b565b935050602084013567ffffffffffffffff811115610c1d57610c1c610a6f565b5b610c2986828701610ba7565b9250506040610c3a86828701610a8b565b9150509250925092565b6000819050919050565b610c5781610c44565b82525050565b6000602082019050610c726000830184610c4e565b92915050565b600073ffffffffffffffffffffffffffffffffffffffff82169050919050565b6000610ca382610c78565b9050919050565b610cb381610c98565b8114610cbe57600080fd5b50565b600081359050610cd081610caa565b92915050565b60008060008060808587031215610cf057610cef610a6a565b5b6000610cfe87828801610a8b565b945050602085013567ffffffffffffffff811115610d1f57610d1e610a6f565b5b610d2b87828801610ba7565b9350506040610d3c87828801610a8b565b9250506060610d4d87828801610cc1565b91505092959194509250565b610d6281610c44565b8114610d6d57600080fd5b50565b600081359050610d7f81610d59565b92915050565b600060208284031215610d9b57610d9a610a6a565b5b6000610da984828501610d70565b91505092915050565b600060ff82169050919050565b610dc881610db2565b82525050565b610dd781610c98565b82525050565b600060a082019050610df26000830188610c4e565b610dff6020830187610dbf565b610e0c6040830186610dce565b610e196060830185610984565b610e266080830184610dce565b9695505050505050565b6000610e3b82610c78565b9050919050565b610e4b81610e30565b82525050565b6000602082019050610e666000830184610e42565b92915050565b6000602082019050610e816000830184610dce565b92915050565b7f4e487b7100000000000000000000000000000000000000000000000000000000600052602260045260246000fd5b60006002820490506001821680610ece57607f821691505b602082108103610ee157610ee0610e87565b5b50919050565b6000819050919050565b610f02610efd8261097a565b610ee7565b82525050565b600081905092915050565b6000610f1e826109ae565b610f288185610f08565b9350610f388185602086016109ca565b80840191505092915050565b6000610f508286610ef1565b602082019150610f608285610f13565b9150610f6c8284610ef1565b602082019150819050949350505050565b7f50696c6c20697320636f6e73756d656421000000000000000000000000000000600082015250565b6000610fb36011836109b9565b9150610fbe82610f7d565b602082019050919050565b60006020820190508181036000830152610fe281610fa6565b9050919050565b7f4f6e6c79204d616e7566616374757265722063616e2061636365737321212100600082015250565b600061101f601f836109b9565b915061102a82610fe9565b602082019050919050565b6000602082019050818103600083015261104e81611012565b9050919050565b7f4e487b7100000000000000000000000000000000000000000000000000000000600052601160045260246000fd5b600061108f8261097a565b91507fffffffffffffffffffffffffffffffffffffffffffffffffffffffffffffffff82036110c1576110c0611055565b5b600182019050919050565b7f50696c6c20637265617465642c206e756d6265723a0000000000000000000000600082015250565b60006111026015836109b9565b915061110d826110cc565b602082019050919050565b60006060820190508181036000830152611131816110f5565b905081810360208301526111458185610a05565b90506111546040830184610c4e565b9392505050565b7f50696c6c20646f6573206e6f7420657869737400000000000000000000000000600082015250565b60006111916013836109b9565b915061119c8261115b565b602082019050919050565b600060208201905081810360008301526111c081611184565b905091905056fea26469706673582212201ae667d383acb1ea89f47b264da4a9260e2fc2f6907f39024844e3659329098764736f6c63430008180033",
  "linkReferences": {},
  "deployedLinkReferences": {}
}